{
	"fundme.sol": {
		"FundMe": {
			"abi": [
				{
					"inputs": [
						{
							"internalType": "uint256",
							"name": "_lockTime",
							"type": "uint256"
						}
					],
					"stateMutability": "nonpayable",
					"type": "constructor"
				},
				{
					"inputs": [],
					"name": "fund",
					"outputs": [],
					"stateMutability": "payable",
					"type": "function"
				},
				{
					"inputs": [
						{
							"internalType": "address",
							"name": "",
							"type": "address"
						}
					],
					"name": "fundersToAmount",
					"outputs": [
						{
							"internalType": "uint256",
							"name": "",
							"type": "uint256"
						}
					],
					"stateMutability": "view",
					"type": "function"
				},
				{
					"inputs": [],
					"name": "getChainlinkDataFeedLatestAnswer",
					"outputs": [
						{
							"internalType": "int256",
							"name": "",
							"type": "int256"
						}
					],
					"stateMutability": "view",
					"type": "function"
				},
				{
					"inputs": [],
					"name": "getFund",
					"outputs": [],
					"stateMutability": "nonpayable",
					"type": "function"
				},
				{
					"inputs": [],
					"name": "getFundSuccess",
					"outputs": [
						{
							"internalType": "bool",
							"name": "",
							"type": "bool"
						}
					],
					"stateMutability": "view",
					"type": "function"
				},
				{
					"inputs": [],
					"name": "owner",
					"outputs": [
						{
							"internalType": "address",
							"name": "",
							"type": "address"
						}
					],
					"stateMutability": "view",
					"type": "function"
				},
				{
					"inputs": [
						{
							"internalType": "address",
							"name": "_erc20Addr",
							"type": "address"
						}
					],
					"name": "setErc20Addr",
					"outputs": [],
					"stateMutability": "nonpayable",
					"type": "function"
				},
				{
					"inputs": [
						{
							"internalType": "address",
							"name": "funder",
							"type": "address"
						},
						{
							"internalType": "uint256",
							"name": "amountToUpdate",
							"type": "uint256"
						}
					],
					"name": "setFundertoAmount",
					"outputs": [],
					"stateMutability": "nonpayable",
					"type": "function"
				},
				{
					"inputs": [
						{
							"internalType": "address",
							"name": "newOwner",
							"type": "address"
						}
					],
					"name": "transferOwnership",
					"outputs": [],
					"stateMutability": "nonpayable",
					"type": "function"
				}
			],
			"devdoc": {
				"kind": "dev",
				"methods": {},
				"version": 1
			},
			"evm": {
				"assembly": "    /* \"fundme.sol\":172:3104  contract FundMe {... */\n  mstore(0x40, 0x80)\n    /* \"fundme.sol\":529:780  constructor(uint256 _lockTime) {... */\n  callvalue\n  dup1\n  iszero\n  tag_1\n  jumpi\n  revert(0x00, 0x00)\ntag_1:\n  pop\n  mload(0x40)\n  sub(codesize, bytecodeSize)\n  dup1\n  bytecodeSize\n  dup4\n  codecopy\n  dup2\n  dup2\n  add\n  0x40\n  mstore\n  dup2\n  add\n  swap1\n  tag_2\n  swap2\n  swap1\n  tag_3\n  jump\t// in\ntag_2:\n    /* \"fundme.sol\":616:658  0x1b44F3514812d835EB1BDB0acB33d3fA3351Ee43 */\n  0x1b44f3514812d835eb1bdb0acb33d3fa3351ee43\n    /* \"fundme.sol\":570:578  dataFeed */\n  0x03\n  0x00\n    /* \"fundme.sol\":570:668  dataFeed = AggregatorV3Interface(... */\n  0x0100\n  exp\n  dup2\n  sload\n  dup2\n  0xffffffffffffffffffffffffffffffffffffffff\n  mul\n  not\n  and\n  swap1\n  dup4\n  0xffffffffffffffffffffffffffffffffffffffff\n  and\n  mul\n  or\n  swap1\n  sstore\n  pop\n    /* \"fundme.sol\":686:696  msg.sender */\n  caller\n    /* \"fundme.sol\":678:683  owner */\n  0x05\n  0x00\n    /* \"fundme.sol\":678:696  owner = msg.sender */\n  0x0100\n  exp\n  dup2\n  sload\n  dup2\n  0xffffffffffffffffffffffffffffffffffffffff\n  mul\n  not\n  and\n  swap1\n  dup4\n  0xffffffffffffffffffffffffffffffffffffffff\n  and\n  mul\n  or\n  swap1\n  sstore\n  pop\n    /* \"fundme.sol\":728:743  block.timestamp */\n  timestamp\n    /* \"fundme.sol\":706:725  deploymentTimestamp */\n  0x01\n    /* \"fundme.sol\":706:743  deploymentTimestamp = block.timestamp */\n  dup2\n  swap1\n  sstore\n  pop\n    /* \"fundme.sol\":764:773  _lockTime */\n  dup1\n    /* \"fundme.sol\":753:761  lockTime */\n  0x02\n    /* \"fundme.sol\":753:773  lockTime = _lockTime */\n  dup2\n  swap1\n  sstore\n  pop\n    /* \"fundme.sol\":529:780  constructor(uint256 _lockTime) {... */\n  pop\n    /* \"fundme.sol\":172:3104  contract FundMe {... */\n  jump(tag_6)\n    /* \"#utility.yul\":88:205   */\ntag_8:\n    /* \"#utility.yul\":197:198   */\n  0x00\n    /* \"#utility.yul\":194:195   */\n  0x00\n    /* \"#utility.yul\":187:199   */\n  revert\n    /* \"#utility.yul\":334:411   */\ntag_10:\n    /* \"#utility.yul\":371:378   */\n  0x00\n    /* \"#utility.yul\":400:405   */\n  dup2\n    /* \"#utility.yul\":389:405   */\n  swap1\n  pop\n    /* \"#utility.yul\":334:411   */\n  swap2\n  swap1\n  pop\n  jump\t// out\n    /* \"#utility.yul\":417:539   */\ntag_11:\n    /* \"#utility.yul\":490:514   */\n  tag_19\n    /* \"#utility.yul\":508:513   */\n  dup2\n    /* \"#utility.yul\":490:514   */\n  tag_10\n  jump\t// in\ntag_19:\n    /* \"#utility.yul\":483:488   */\n  dup2\n    /* \"#utility.yul\":480:515   */\n  eq\n    /* \"#utility.yul\":470:533   */\n  tag_20\n  jumpi\n    /* \"#utility.yul\":529:530   */\n  0x00\n    /* \"#utility.yul\":526:527   */\n  0x00\n    /* \"#utility.yul\":519:531   */\n  revert\n    /* \"#utility.yul\":470:533   */\ntag_20:\n    /* \"#utility.yul\":417:539   */\n  pop\n  jump\t// out\n    /* \"#utility.yul\":545:688   */\ntag_12:\n    /* \"#utility.yul\":602:607   */\n  0x00\n    /* \"#utility.yul\":633:639   */\n  dup2\n    /* \"#utility.yul\":627:640   */\n  mload\n    /* \"#utility.yul\":618:640   */\n  swap1\n  pop\n    /* \"#utility.yul\":649:682   */\n  tag_22\n    /* \"#utility.yul\":676:681   */\n  dup2\n    /* \"#utility.yul\":649:682   */\n  tag_11\n  jump\t// in\ntag_22:\n    /* \"#utility.yul\":545:688   */\n  swap3\n  swap2\n  pop\n  pop\n  jump\t// out\n    /* \"#utility.yul\":694:1045   */\ntag_3:\n    /* \"#utility.yul\":764:770   */\n  0x00\n    /* \"#utility.yul\":813:815   */\n  0x20\n    /* \"#utility.yul\":801:810   */\n  dup3\n    /* \"#utility.yul\":792:799   */\n  dup5\n    /* \"#utility.yul\":788:811   */\n  sub\n    /* \"#utility.yul\":784:816   */\n  slt\n    /* \"#utility.yul\":781:900   */\n  iszero\n  tag_24\n  jumpi\n    /* \"#utility.yul\":819:898   */\n  tag_25\n  tag_8\n  jump\t// in\ntag_25:\n    /* \"#utility.yul\":781:900   */\ntag_24:\n    /* \"#utility.yul\":939:940   */\n  0x00\n    /* \"#utility.yul\":964:1028   */\n  tag_26\n    /* \"#utility.yul\":1020:1027   */\n  dup5\n    /* \"#utility.yul\":1011:1017   */\n  dup3\n    /* \"#utility.yul\":1000:1009   */\n  dup6\n    /* \"#utility.yul\":996:1018   */\n  add\n    /* \"#utility.yul\":964:1028   */\n  tag_12\n  jump\t// in\ntag_26:\n    /* \"#utility.yul\":954:1028   */\n  swap2\n  pop\n    /* \"#utility.yul\":910:1038   */\n  pop\n    /* \"#utility.yul\":694:1045   */\n  swap3\n  swap2\n  pop\n  pop\n  jump\t// out\n    /* \"fundme.sol\":172:3104  contract FundMe {... */\ntag_6:\n  dataSize(sub_0)\n  dup1\n  dataOffset(sub_0)\n  0x00\n  codecopy\n  0x00\n  return\nstop\n\nsub_0: assembly {\n        /* \"fundme.sol\":172:3104  contract FundMe {... */\n      mstore(0x40, 0x80)\n      jumpi(tag_1, lt(calldatasize, 0x04))\n      shr(0xe0, calldataload(0x00))\n      dup1\n      0xb60d4288\n      gt\n      tag_11\n      jumpi\n      dup1\n      0xb60d4288\n      eq\n      tag_6\n      jumpi\n      dup1\n      0xbea4dfb5\n      eq\n      tag_7\n      jumpi\n      dup1\n      0xc092158d\n      eq\n      tag_8\n      jumpi\n      dup1\n      0xda4658e0\n      eq\n      tag_9\n      jumpi\n      dup1\n      0xf2fde38b\n      eq\n      tag_10\n      jumpi\n      jump(tag_1)\n    tag_11:\n      dup1\n      0x13ffff01\n      eq\n      tag_2\n      jumpi\n      dup1\n      0x8da5cb5b\n      eq\n      tag_3\n      jumpi\n      dup1\n      0x8edd6eb6\n      eq\n      tag_4\n      jumpi\n      dup1\n      0x9f883a05\n      eq\n      tag_5\n      jumpi\n    tag_1:\n      revert(0x00, 0x00)\n        /* \"fundme.sol\":2713:2811  function setErc20Addr(address _erc20Addr) public onlyOwner {... */\n    tag_2:\n      callvalue\n      dup1\n      iszero\n      tag_12\n      jumpi\n      revert(0x00, 0x00)\n    tag_12:\n      pop\n      tag_13\n      0x04\n      dup1\n      calldatasize\n      sub\n      dup2\n      add\n      swap1\n      tag_14\n      swap2\n      swap1\n      tag_15\n      jump\t// in\n    tag_14:\n      tag_16\n      jump\t// in\n    tag_13:\n      stop\n        /* \"fundme.sol\":469:489  address public owner */\n    tag_3:\n      callvalue\n      dup1\n      iszero\n      tag_17\n      jumpi\n      revert(0x00, 0x00)\n    tag_17:\n      pop\n      tag_18\n      tag_19\n      jump\t// in\n    tag_18:\n      mload(0x40)\n      tag_20\n      swap2\n      swap1\n      tag_21\n      jump\t// in\n    tag_20:\n      mload(0x40)\n      dup1\n      swap2\n      sub\n      swap1\n      return\n        /* \"fundme.sol\":1649:2379  function getFund() external {... */\n    tag_4:\n      callvalue\n      dup1\n      iszero\n      tag_22\n      jumpi\n      revert(0x00, 0x00)\n    tag_22:\n      pop\n      tag_23\n      tag_24\n      jump\t// in\n    tag_23:\n      stop\n        /* \"fundme.sol\":248:298  mapping(address => uint256) public fundersToAmount */\n    tag_5:\n      callvalue\n      dup1\n      iszero\n      tag_25\n      jumpi\n      revert(0x00, 0x00)\n    tag_25:\n      pop\n      tag_26\n      0x04\n      dup1\n      calldatasize\n      sub\n      dup2\n      add\n      swap1\n      tag_27\n      swap2\n      swap1\n      tag_15\n      jump\t// in\n    tag_27:\n      tag_28\n      jump\t// in\n    tag_26:\n      mload(0x40)\n      tag_29\n      swap2\n      swap1\n      tag_30\n      jump\t// in\n    tag_29:\n      mload(0x40)\n      dup1\n      swap2\n      sub\n      swap1\n      return\n        /* \"fundme.sol\":786:1039  function fund() external payable windowCLosed {... */\n    tag_6:\n      tag_31\n      tag_32\n      jump\t// in\n    tag_31:\n      stop\n        /* \"fundme.sol\":1095:1432  function getChainlinkDataFeedLatestAnswer() public view returns (int256) {... */\n    tag_7:\n      callvalue\n      dup1\n      iszero\n      tag_33\n      jumpi\n      revert(0x00, 0x00)\n    tag_33:\n      pop\n      tag_34\n      tag_35\n      jump\t// in\n    tag_34:\n      mload(0x40)\n      tag_36\n      swap2\n      swap1\n      tag_37\n      jump\t// in\n    tag_36:\n      mload(0x40)\n      dup1\n      swap2\n      sub\n      swap1\n      return\n        /* \"fundme.sol\":2552:2707  function setFundertoAmount(... */\n    tag_8:\n      callvalue\n      dup1\n      iszero\n      tag_38\n      jumpi\n      revert(0x00, 0x00)\n    tag_38:\n      pop\n      tag_39\n      0x04\n      dup1\n      calldatasize\n      sub\n      dup2\n      add\n      swap1\n      tag_40\n      swap2\n      swap1\n      tag_41\n      jump\t// in\n    tag_40:\n      tag_42\n      jump\t// in\n    tag_39:\n      stop\n        /* \"fundme.sol\":496:522  bool public getFundSuccess */\n    tag_9:\n      callvalue\n      dup1\n      iszero\n      tag_43\n      jumpi\n      revert(0x00, 0x00)\n    tag_43:\n      pop\n      tag_44\n      tag_45\n      jump\t// in\n    tag_44:\n      mload(0x40)\n      tag_46\n      swap2\n      swap1\n      tag_47\n      jump\t// in\n    tag_46:\n      mload(0x40)\n      dup1\n      swap2\n      sub\n      swap1\n      return\n        /* \"fundme.sol\":2385:2546  function transferOwnership(address newOwner) public {... */\n    tag_10:\n      callvalue\n      dup1\n      iszero\n      tag_48\n      jumpi\n      revert(0x00, 0x00)\n    tag_48:\n      pop\n      tag_49\n      0x04\n      dup1\n      calldatasize\n      sub\n      dup2\n      add\n      swap1\n      tag_50\n      swap2\n      swap1\n      tag_15\n      jump\t// in\n    tag_50:\n      tag_51\n      jump\t// in\n    tag_49:\n      stop\n        /* \"fundme.sol\":2713:2811  function setErc20Addr(address _erc20Addr) public onlyOwner {... */\n    tag_16:\n        /* \"fundme.sol\":3040:3045  owner */\n      0x05\n      0x00\n      swap1\n      sload\n      swap1\n      0x0100\n      exp\n      swap1\n      div\n      0xffffffffffffffffffffffffffffffffffffffff\n      and\n        /* \"fundme.sol\":3026:3045  msg.sender == owner */\n      0xffffffffffffffffffffffffffffffffffffffff\n      and\n        /* \"fundme.sol\":3026:3036  msg.sender */\n      caller\n        /* \"fundme.sol\":3026:3045  msg.sender == owner */\n      0xffffffffffffffffffffffffffffffffffffffff\n      and\n      eq\n        /* \"fundme.sol\":3018:3084  require(msg.sender == owner, \"this function only call by owner!!\") */\n      tag_53\n      jumpi\n      mload(0x40)\n      0x08c379a000000000000000000000000000000000000000000000000000000000\n      dup2\n      mstore\n      0x04\n      add\n      tag_54\n      swap1\n      tag_55\n      jump\t// in\n    tag_54:\n      mload(0x40)\n      dup1\n      swap2\n      sub\n      swap1\n      revert\n    tag_53:\n        /* \"fundme.sol\":2794:2804  _erc20Addr */\n      dup1\n        /* \"fundme.sol\":2782:2791  erc20Addr */\n      0x04\n      0x00\n        /* \"fundme.sol\":2782:2804  erc20Addr = _erc20Addr */\n      0x0100\n      exp\n      dup2\n      sload\n      dup2\n      0xffffffffffffffffffffffffffffffffffffffff\n      mul\n      not\n      and\n      swap1\n      dup4\n      0xffffffffffffffffffffffffffffffffffffffff\n      and\n      mul\n      or\n      swap1\n      sstore\n      pop\n        /* \"fundme.sol\":2713:2811  function setErc20Addr(address _erc20Addr) public onlyOwner {... */\n      pop\n      jump\t// out\n        /* \"fundme.sol\":469:489  address public owner */\n    tag_19:\n      0x05\n      0x00\n      swap1\n      sload\n      swap1\n      0x0100\n      exp\n      swap1\n      div\n      0xffffffffffffffffffffffffffffffffffffffff\n      and\n      dup2\n      jump\t// out\n        /* \"fundme.sol\":1649:2379  function getFund() external {... */\n    tag_24:\n        /* \"fundme.sol\":331:345  100 * 10 ** 18 */\n      0x056bc75e2d63100000\n        /* \"fundme.sol\":1708:1745  convertETHTUSD(address(this).balance) */\n      tag_58\n        /* \"fundme.sol\":1723:1744  address(this).balance */\n      selfbalance\n        /* \"fundme.sol\":1708:1722  convertETHTUSD */\n      tag_59\n        /* \"fundme.sol\":1708:1745  convertETHTUSD(address(this).balance) */\n      jump\t// in\n    tag_58:\n        /* \"fundme.sol\":1708:1755  convertETHTUSD(address(this).balance) >= TARGET */\n      lt\n      iszero\n        /* \"fundme.sol\":1687:1802  require(... */\n      tag_60\n      jumpi\n      mload(0x40)\n      0x08c379a000000000000000000000000000000000000000000000000000000000\n      dup2\n      mstore\n      0x04\n      add\n      tag_61\n      swap1\n      tag_62\n      jump\t// in\n    tag_61:\n      mload(0x40)\n      dup1\n      swap2\n      sub\n      swap1\n      revert\n    tag_60:\n        /* \"fundme.sol\":1834:1839  owner */\n      0x05\n      0x00\n      swap1\n      sload\n      swap1\n      0x0100\n      exp\n      swap1\n      div\n      0xffffffffffffffffffffffffffffffffffffffff\n      and\n        /* \"fundme.sol\":1820:1839  msg.sender == owner */\n      0xffffffffffffffffffffffffffffffffffffffff\n      and\n        /* \"fundme.sol\":1820:1830  msg.sender */\n      caller\n        /* \"fundme.sol\":1820:1839  msg.sender == owner */\n      0xffffffffffffffffffffffffffffffffffffffff\n      and\n      eq\n        /* \"fundme.sol\":1812:1878  require(msg.sender == owner, \"this function only call by owner!!\") */\n      tag_63\n      jumpi\n      mload(0x40)\n      0x08c379a000000000000000000000000000000000000000000000000000000000\n      dup2\n      mstore\n      0x04\n      add\n      tag_64\n      swap1\n      tag_55\n      jump\t// in\n    tag_64:\n      mload(0x40)\n      dup1\n      swap2\n      sub\n      swap1\n      revert\n    tag_63:\n        /* \"fundme.sol\":2217:2229  bool success */\n      0x00\n        /* \"fundme.sol\":2261:2271  msg.sender */\n      caller\n        /* \"fundme.sol\":2253:2277  payable(msg.sender).call */\n      0xffffffffffffffffffffffffffffffffffffffff\n      and\n        /* \"fundme.sol\":2285:2306  address(this).balance */\n      selfbalance\n        /* \"fundme.sol\":2253:2333  payable(msg.sender).call{value: address(this).balance}(... */\n      mload(0x40)\n      tag_65\n      swap1\n      tag_66\n      jump\t// in\n    tag_65:\n      0x00\n      mload(0x40)\n      dup1\n      dup4\n      sub\n      dup2\n      dup6\n      dup8\n      gas\n      call\n      swap3\n      pop\n      pop\n      pop\n      returndatasize\n      dup1\n      0x00\n      dup2\n      eq\n      tag_69\n      jumpi\n      mload(0x40)\n      swap2\n      pop\n      and(add(returndatasize, 0x3f), not(0x1f))\n      dup3\n      add\n      0x40\n      mstore\n      returndatasize\n      dup3\n      mstore\n      returndatasize\n      0x00\n      0x20\n      dup5\n      add\n      returndatacopy\n      jump(tag_68)\n    tag_69:\n      0x60\n      swap2\n      pop\n    tag_68:\n      pop\n        /* \"fundme.sol\":2239:2333  (success, ) = payable(msg.sender).call{value: address(this).balance}(... */\n      pop\n      dup1\n      swap2\n      pop\n      pop\n        /* \"fundme.sol\":2351:2358  success */\n      dup1\n        /* \"fundme.sol\":2343:2372  require(success, \"tx failed\") */\n      tag_70\n      jumpi\n      mload(0x40)\n      0x08c379a000000000000000000000000000000000000000000000000000000000\n      dup2\n      mstore\n      0x04\n      add\n      tag_71\n      swap1\n      tag_72\n      jump\t// in\n    tag_71:\n      mload(0x40)\n      dup1\n      swap2\n      sub\n      swap1\n      revert\n    tag_70:\n        /* \"fundme.sol\":1677:2379  {... */\n      pop\n        /* \"fundme.sol\":1649:2379  function getFund() external {... */\n      jump\t// out\n        /* \"fundme.sol\":248:298  mapping(address => uint256) public fundersToAmount */\n    tag_28:\n      mstore(0x20, 0x00)\n      dup1\n      0x00\n      mstore\n      keccak256(0x00, 0x40)\n      0x00\n      swap2\n      pop\n      swap1\n      pop\n      sload\n      dup2\n      jump\t// out\n        /* \"fundme.sol\":786:1039  function fund() external payable windowCLosed {... */\n    tag_32:\n        /* \"fundme.sol\":2905:2920  block.timestamp */\n      timestamp\n        /* \"fundme.sol\":2894:2902  lockTime */\n      sload(0x02)\n        /* \"fundme.sol\":2872:2891  deploymentTimestamp */\n      sload(0x01)\n        /* \"fundme.sol\":2872:2902  deploymentTimestamp + lockTime */\n      tag_74\n      swap2\n      swap1\n      tag_75\n      jump\t// in\n    tag_74:\n        /* \"fundme.sol\":2872:2920  deploymentTimestamp + lockTime > block.timestamp */\n      gt\n        /* \"fundme.sol\":2851:2963  require(... */\n      tag_76\n      jumpi\n      mload(0x40)\n      0x08c379a000000000000000000000000000000000000000000000000000000000\n      dup2\n      mstore\n      0x04\n      add\n      tag_77\n      swap1\n      tag_78\n      jump\t// in\n    tag_77:\n      mload(0x40)\n      dup1\n      swap2\n      sub\n      swap1\n      revert\n    tag_76:\n        /* \"fundme.sol\":227:241  100 * 10 ** 18 */\n      0x056bc75e2d63100000\n        /* \"fundme.sol\":863:888  convertETHTUSD(msg.value) */\n      tag_80\n        /* \"fundme.sol\":878:887  msg.value */\n      callvalue\n        /* \"fundme.sol\":863:877  convertETHTUSD */\n      tag_59\n        /* \"fundme.sol\":863:888  convertETHTUSD(msg.value) */\n      jump\t// in\n    tag_80:\n        /* \"fundme.sol\":863:905  convertETHTUSD(msg.value) >= MINIMUM_VALUE */\n      lt\n      iszero\n        /* \"fundme.sol\":842:951  require(... */\n      tag_81\n      jumpi\n      mload(0x40)\n      0x08c379a000000000000000000000000000000000000000000000000000000000\n      dup2\n      mstore\n      0x04\n      add\n      tag_82\n      swap1\n      tag_83\n      jump\t// in\n    tag_82:\n      mload(0x40)\n      dup1\n      swap2\n      sub\n      swap1\n      revert\n    tag_81:\n        /* \"fundme.sol\":992:1001  msg.value */\n      callvalue\n        /* \"fundme.sol\":961:976  fundersToAmount */\n      0x00\n        /* \"fundme.sol\":961:988  fundersToAmount[msg.sender] */\n      0x00\n        /* \"fundme.sol\":977:987  msg.sender */\n      caller\n        /* \"fundme.sol\":961:988  fundersToAmount[msg.sender] */\n      0xffffffffffffffffffffffffffffffffffffffff\n      and\n      0xffffffffffffffffffffffffffffffffffffffff\n      and\n      dup2\n      mstore\n      0x20\n      add\n      swap1\n      dup2\n      mstore\n      0x20\n      add\n      0x00\n      keccak256\n      0x00\n        /* \"fundme.sol\":961:1001  fundersToAmount[msg.sender] += msg.value */\n      dup3\n      dup3\n      sload\n      tag_84\n      swap2\n      swap1\n      tag_75\n      jump\t// in\n    tag_84:\n      swap3\n      pop\n      pop\n      dup2\n      swap1\n      sstore\n      pop\n        /* \"fundme.sol\":1028:1032  true */\n      0x01\n        /* \"fundme.sol\":1011:1025  getFundSuccess */\n      0x05\n      0x14\n        /* \"fundme.sol\":1011:1032  getFundSuccess = true */\n      0x0100\n      exp\n      dup2\n      sload\n      dup2\n      0xff\n      mul\n      not\n      and\n      swap1\n      dup4\n      iszero\n      iszero\n      mul\n      or\n      swap1\n      sstore\n      pop\n        /* \"fundme.sol\":786:1039  function fund() external payable windowCLosed {... */\n      jump\t// out\n        /* \"fundme.sol\":1095:1432  function getChainlinkDataFeedLatestAnswer() public view returns (int256) {... */\n    tag_35:\n        /* \"fundme.sol\":1160:1166  int256 */\n      0x00\n        /* \"fundme.sol\":1248:1261  int256 answer */\n      0x00\n        /* \"fundme.sol\":1376:1384  dataFeed */\n      0x03\n      0x00\n      swap1\n      sload\n      swap1\n      0x0100\n      exp\n      swap1\n      div\n      0xffffffffffffffffffffffffffffffffffffffff\n      and\n        /* \"fundme.sol\":1376:1400  dataFeed.latestRoundData */\n      0xffffffffffffffffffffffffffffffffffffffff\n      and\n      0xfeaf968c\n        /* \"fundme.sol\":1376:1402  dataFeed.latestRoundData() */\n      mload(0x40)\n      dup2\n      0xffffffff\n      and\n      0xe0\n      shl\n      dup2\n      mstore\n      0x04\n      add\n      0xa0\n      mload(0x40)\n      dup1\n      dup4\n      sub\n      dup2\n      dup7\n      gas\n      staticcall\n      iszero\n      dup1\n      iszero\n      tag_87\n      jumpi\n      returndatacopy(0x00, 0x00, returndatasize)\n      revert(0x00, returndatasize)\n    tag_87:\n      pop\n      pop\n      pop\n      pop\n      mload(0x40)\n      returndatasize\n      not(0x1f)\n      0x1f\n      dup3\n      add\n      and\n      dup3\n      add\n      dup1\n      0x40\n      mstore\n      pop\n      dup2\n      add\n      swap1\n      tag_88\n      swap2\n      swap1\n      tag_89\n      jump\t// in\n    tag_88:\n        /* \"fundme.sol\":1205:1402  (... */\n      pop\n      pop\n      pop\n      swap2\n      pop\n      pop\n        /* \"fundme.sol\":1419:1425  answer */\n      dup1\n        /* \"fundme.sol\":1412:1425  return answer */\n      swap2\n      pop\n      pop\n        /* \"fundme.sol\":1095:1432  function getChainlinkDataFeedLatestAnswer() public view returns (int256) {... */\n      swap1\n      jump\t// out\n        /* \"fundme.sol\":2552:2707  function setFundertoAmount(... */\n    tag_42:\n        /* \"fundme.sol\":2686:2700  amountToUpdate */\n      dup1\n        /* \"fundme.sol\":2660:2675  fundersToAmount */\n      0x00\n        /* \"fundme.sol\":2660:2683  fundersToAmount[funder] */\n      0x00\n        /* \"fundme.sol\":2676:2682  funder */\n      dup5\n        /* \"fundme.sol\":2660:2683  fundersToAmount[funder] */\n      0xffffffffffffffffffffffffffffffffffffffff\n      and\n      0xffffffffffffffffffffffffffffffffffffffff\n      and\n      dup2\n      mstore\n      0x20\n      add\n      swap1\n      dup2\n      mstore\n      0x20\n      add\n      0x00\n      keccak256\n        /* \"fundme.sol\":2660:2700  fundersToAmount[funder] = amountToUpdate */\n      dup2\n      swap1\n      sstore\n      pop\n        /* \"fundme.sol\":2552:2707  function setFundertoAmount(... */\n      pop\n      pop\n      jump\t// out\n        /* \"fundme.sol\":496:522  bool public getFundSuccess */\n    tag_45:\n      0x05\n      0x14\n      swap1\n      sload\n      swap1\n      0x0100\n      exp\n      swap1\n      div\n      0xff\n      and\n      dup2\n      jump\t// out\n        /* \"fundme.sol\":2385:2546  function transferOwnership(address newOwner) public {... */\n    tag_51:\n        /* \"fundme.sol\":2469:2474  owner */\n      0x05\n      0x00\n      swap1\n      sload\n      swap1\n      0x0100\n      exp\n      swap1\n      div\n      0xffffffffffffffffffffffffffffffffffffffff\n      and\n        /* \"fundme.sol\":2455:2474  msg.sender == owner */\n      0xffffffffffffffffffffffffffffffffffffffff\n      and\n        /* \"fundme.sol\":2455:2465  msg.sender */\n      caller\n        /* \"fundme.sol\":2455:2474  msg.sender == owner */\n      0xffffffffffffffffffffffffffffffffffffffff\n      and\n      eq\n        /* \"fundme.sol\":2447:2513  require(msg.sender == owner, \"this function only call by owner!!\") */\n      tag_92\n      jumpi\n      mload(0x40)\n      0x08c379a000000000000000000000000000000000000000000000000000000000\n      dup2\n      mstore\n      0x04\n      add\n      tag_93\n      swap1\n      tag_55\n      jump\t// in\n    tag_93:\n      mload(0x40)\n      dup1\n      swap2\n      sub\n      swap1\n      revert\n    tag_92:\n        /* \"fundme.sol\":2531:2539  newOwner */\n      dup1\n        /* \"fundme.sol\":2523:2528  owner */\n      0x05\n      0x00\n        /* \"fundme.sol\":2523:2539  owner = newOwner */\n      0x0100\n      exp\n      dup2\n      sload\n      dup2\n      0xffffffffffffffffffffffffffffffffffffffff\n      mul\n      not\n      and\n      swap1\n      dup4\n      0xffffffffffffffffffffffffffffffffffffffff\n      and\n      mul\n      or\n      swap1\n      sstore\n      pop\n        /* \"fundme.sol\":2385:2546  function transferOwnership(address newOwner) public {... */\n      pop\n      jump\t// out\n        /* \"fundme.sol\":1438:1643  function convertETHTUSD(uint256 ethAmount) internal view returns (uint256) {... */\n    tag_59:\n        /* \"fundme.sol\":1504:1511  uint256 */\n      0x00\n        /* \"fundme.sol\":1523:1539  uint256 ethPrice */\n      0x00\n        /* \"fundme.sol\":1550:1584  getChainlinkDataFeedLatestAnswer() */\n      tag_95\n        /* \"fundme.sol\":1550:1582  getChainlinkDataFeedLatestAnswer */\n      tag_35\n        /* \"fundme.sol\":1550:1584  getChainlinkDataFeedLatestAnswer() */\n      jump\t// in\n    tag_95:\n        /* \"fundme.sol\":1523:1585  uint256 ethPrice = uint256(getChainlinkDataFeedLatestAnswer()) */\n      swap1\n      pop\n        /* \"fundme.sol\":1628:1635  10 ** 8 */\n      0x05f5e100\n        /* \"fundme.sol\":1615:1623  ethPrice */\n      dup2\n        /* \"fundme.sol\":1603:1612  ethAmount */\n      dup5\n        /* \"fundme.sol\":1603:1623  ethAmount * ethPrice */\n      tag_96\n      swap2\n      swap1\n      tag_97\n      jump\t// in\n    tag_96:\n        /* \"fundme.sol\":1602:1636  (ethAmount * ethPrice) / (10 ** 8) */\n      tag_98\n      swap2\n      swap1\n      tag_99\n      jump\t// in\n    tag_98:\n        /* \"fundme.sol\":1595:1636  return (ethAmount * ethPrice) / (10 ** 8) */\n      swap2\n      pop\n      pop\n        /* \"fundme.sol\":1438:1643  function convertETHTUSD(uint256 ethAmount) internal view returns (uint256) {... */\n      swap2\n      swap1\n      pop\n      jump\t// out\n        /* \"#utility.yul\":88:205   */\n    tag_101:\n        /* \"#utility.yul\":197:198   */\n      0x00\n        /* \"#utility.yul\":194:195   */\n      0x00\n        /* \"#utility.yul\":187:199   */\n      revert\n        /* \"#utility.yul\":334:460   */\n    tag_103:\n        /* \"#utility.yul\":371:378   */\n      0x00\n        /* \"#utility.yul\":411:453   */\n      0xffffffffffffffffffffffffffffffffffffffff\n        /* \"#utility.yul\":404:409   */\n      dup3\n        /* \"#utility.yul\":400:454   */\n      and\n        /* \"#utility.yul\":389:454   */\n      swap1\n      pop\n        /* \"#utility.yul\":334:460   */\n      swap2\n      swap1\n      pop\n      jump\t// out\n        /* \"#utility.yul\":466:562   */\n    tag_104:\n        /* \"#utility.yul\":503:510   */\n      0x00\n        /* \"#utility.yul\":532:556   */\n      tag_144\n        /* \"#utility.yul\":550:555   */\n      dup3\n        /* \"#utility.yul\":532:556   */\n      tag_103\n      jump\t// in\n    tag_144:\n        /* \"#utility.yul\":521:556   */\n      swap1\n      pop\n        /* \"#utility.yul\":466:562   */\n      swap2\n      swap1\n      pop\n      jump\t// out\n        /* \"#utility.yul\":568:690   */\n    tag_105:\n        /* \"#utility.yul\":641:665   */\n      tag_146\n        /* \"#utility.yul\":659:664   */\n      dup2\n        /* \"#utility.yul\":641:665   */\n      tag_104\n      jump\t// in\n    tag_146:\n        /* \"#utility.yul\":634:639   */\n      dup2\n        /* \"#utility.yul\":631:666   */\n      eq\n        /* \"#utility.yul\":621:684   */\n      tag_147\n      jumpi\n        /* \"#utility.yul\":680:681   */\n      0x00\n        /* \"#utility.yul\":677:678   */\n      0x00\n        /* \"#utility.yul\":670:682   */\n      revert\n        /* \"#utility.yul\":621:684   */\n    tag_147:\n        /* \"#utility.yul\":568:690   */\n      pop\n      jump\t// out\n        /* \"#utility.yul\":696:835   */\n    tag_106:\n        /* \"#utility.yul\":742:747   */\n      0x00\n        /* \"#utility.yul\":780:786   */\n      dup2\n        /* \"#utility.yul\":767:787   */\n      calldataload\n        /* \"#utility.yul\":758:787   */\n      swap1\n      pop\n        /* \"#utility.yul\":796:829   */\n      tag_149\n        /* \"#utility.yul\":823:828   */\n      dup2\n        /* \"#utility.yul\":796:829   */\n      tag_105\n      jump\t// in\n    tag_149:\n        /* \"#utility.yul\":696:835   */\n      swap3\n      swap2\n      pop\n      pop\n      jump\t// out\n        /* \"#utility.yul\":841:1170   */\n    tag_15:\n        /* \"#utility.yul\":900:906   */\n      0x00\n        /* \"#utility.yul\":949:951   */\n      0x20\n        /* \"#utility.yul\":937:946   */\n      dup3\n        /* \"#utility.yul\":928:935   */\n      dup5\n        /* \"#utility.yul\":924:947   */\n      sub\n        /* \"#utility.yul\":920:952   */\n      slt\n        /* \"#utility.yul\":917:1036   */\n      iszero\n      tag_151\n      jumpi\n        /* \"#utility.yul\":955:1034   */\n      tag_152\n      tag_101\n      jump\t// in\n    tag_152:\n        /* \"#utility.yul\":917:1036   */\n    tag_151:\n        /* \"#utility.yul\":1075:1076   */\n      0x00\n        /* \"#utility.yul\":1100:1153   */\n      tag_153\n        /* \"#utility.yul\":1145:1152   */\n      dup5\n        /* \"#utility.yul\":1136:1142   */\n      dup3\n        /* \"#utility.yul\":1125:1134   */\n      dup6\n        /* \"#utility.yul\":1121:1143   */\n      add\n        /* \"#utility.yul\":1100:1153   */\n      tag_106\n      jump\t// in\n    tag_153:\n        /* \"#utility.yul\":1090:1153   */\n      swap2\n      pop\n        /* \"#utility.yul\":1046:1163   */\n      pop\n        /* \"#utility.yul\":841:1170   */\n      swap3\n      swap2\n      pop\n      pop\n      jump\t// out\n        /* \"#utility.yul\":1176:1294   */\n    tag_107:\n        /* \"#utility.yul\":1263:1287   */\n      tag_155\n        /* \"#utility.yul\":1281:1286   */\n      dup2\n        /* \"#utility.yul\":1263:1287   */\n      tag_104\n      jump\t// in\n    tag_155:\n        /* \"#utility.yul\":1258:1261   */\n      dup3\n        /* \"#utility.yul\":1251:1288   */\n      mstore\n        /* \"#utility.yul\":1176:1294   */\n      pop\n      pop\n      jump\t// out\n        /* \"#utility.yul\":1300:1522   */\n    tag_21:\n        /* \"#utility.yul\":1393:1397   */\n      0x00\n        /* \"#utility.yul\":1431:1433   */\n      0x20\n        /* \"#utility.yul\":1420:1429   */\n      dup3\n        /* \"#utility.yul\":1416:1434   */\n      add\n        /* \"#utility.yul\":1408:1434   */\n      swap1\n      pop\n        /* \"#utility.yul\":1444:1515   */\n      tag_157\n        /* \"#utility.yul\":1512:1513   */\n      0x00\n        /* \"#utility.yul\":1501:1510   */\n      dup4\n        /* \"#utility.yul\":1497:1514   */\n      add\n        /* \"#utility.yul\":1488:1494   */\n      dup5\n        /* \"#utility.yul\":1444:1515   */\n      tag_107\n      jump\t// in\n    tag_157:\n        /* \"#utility.yul\":1300:1522   */\n      swap3\n      swap2\n      pop\n      pop\n      jump\t// out\n        /* \"#utility.yul\":1528:1605   */\n    tag_108:\n        /* \"#utility.yul\":1565:1572   */\n      0x00\n        /* \"#utility.yul\":1594:1599   */\n      dup2\n        /* \"#utility.yul\":1583:1599   */\n      swap1\n      pop\n        /* \"#utility.yul\":1528:1605   */\n      swap2\n      swap1\n      pop\n      jump\t// out\n        /* \"#utility.yul\":1611:1729   */\n    tag_109:\n        /* \"#utility.yul\":1698:1722   */\n      tag_160\n        /* \"#utility.yul\":1716:1721   */\n      dup2\n        /* \"#utility.yul\":1698:1722   */\n      tag_108\n      jump\t// in\n    tag_160:\n        /* \"#utility.yul\":1693:1696   */\n      dup3\n        /* \"#utility.yul\":1686:1723   */\n      mstore\n        /* \"#utility.yul\":1611:1729   */\n      pop\n      pop\n      jump\t// out\n        /* \"#utility.yul\":1735:1957   */\n    tag_30:\n        /* \"#utility.yul\":1828:1832   */\n      0x00\n        /* \"#utility.yul\":1866:1868   */\n      0x20\n        /* \"#utility.yul\":1855:1864   */\n      dup3\n        /* \"#utility.yul\":1851:1869   */\n      add\n        /* \"#utility.yul\":1843:1869   */\n      swap1\n      pop\n        /* \"#utility.yul\":1879:1950   */\n      tag_162\n        /* \"#utility.yul\":1947:1948   */\n      0x00\n        /* \"#utility.yul\":1936:1945   */\n      dup4\n        /* \"#utility.yul\":1932:1949   */\n      add\n        /* \"#utility.yul\":1923:1929   */\n      dup5\n        /* \"#utility.yul\":1879:1950   */\n      tag_109\n      jump\t// in\n    tag_162:\n        /* \"#utility.yul\":1735:1957   */\n      swap3\n      swap2\n      pop\n      pop\n      jump\t// out\n        /* \"#utility.yul\":1963:2039   */\n    tag_110:\n        /* \"#utility.yul\":1999:2006   */\n      0x00\n        /* \"#utility.yul\":2028:2033   */\n      dup2\n        /* \"#utility.yul\":2017:2033   */\n      swap1\n      pop\n        /* \"#utility.yul\":1963:2039   */\n      swap2\n      swap1\n      pop\n      jump\t// out\n        /* \"#utility.yul\":2045:2160   */\n    tag_111:\n        /* \"#utility.yul\":2130:2153   */\n      tag_165\n        /* \"#utility.yul\":2147:2152   */\n      dup2\n        /* \"#utility.yul\":2130:2153   */\n      tag_110\n      jump\t// in\n    tag_165:\n        /* \"#utility.yul\":2125:2128   */\n      dup3\n        /* \"#utility.yul\":2118:2154   */\n      mstore\n        /* \"#utility.yul\":2045:2160   */\n      pop\n      pop\n      jump\t// out\n        /* \"#utility.yul\":2166:2384   */\n    tag_37:\n        /* \"#utility.yul\":2257:2261   */\n      0x00\n        /* \"#utility.yul\":2295:2297   */\n      0x20\n        /* \"#utility.yul\":2284:2293   */\n      dup3\n        /* \"#utility.yul\":2280:2298   */\n      add\n        /* \"#utility.yul\":2272:2298   */\n      swap1\n      pop\n        /* \"#utility.yul\":2308:2377   */\n      tag_167\n        /* \"#utility.yul\":2374:2375   */\n      0x00\n        /* \"#utility.yul\":2363:2372   */\n      dup4\n        /* \"#utility.yul\":2359:2376   */\n      add\n        /* \"#utility.yul\":2350:2356   */\n      dup5\n        /* \"#utility.yul\":2308:2377   */\n      tag_111\n      jump\t// in\n    tag_167:\n        /* \"#utility.yul\":2166:2384   */\n      swap3\n      swap2\n      pop\n      pop\n      jump\t// out\n        /* \"#utility.yul\":2390:2512   */\n    tag_112:\n        /* \"#utility.yul\":2463:2487   */\n      tag_169\n        /* \"#utility.yul\":2481:2486   */\n      dup2\n        /* \"#utility.yul\":2463:2487   */\n      tag_108\n      jump\t// in\n    tag_169:\n        /* \"#utility.yul\":2456:2461   */\n      dup2\n        /* \"#utility.yul\":2453:2488   */\n      eq\n        /* \"#utility.yul\":2443:2506   */\n      tag_170\n      jumpi\n        /* \"#utility.yul\":2502:2503   */\n      0x00\n        /* \"#utility.yul\":2499:2500   */\n      0x00\n        /* \"#utility.yul\":2492:2504   */\n      revert\n        /* \"#utility.yul\":2443:2506   */\n    tag_170:\n        /* \"#utility.yul\":2390:2512   */\n      pop\n      jump\t// out\n        /* \"#utility.yul\":2518:2657   */\n    tag_113:\n        /* \"#utility.yul\":2564:2569   */\n      0x00\n        /* \"#utility.yul\":2602:2608   */\n      dup2\n        /* \"#utility.yul\":2589:2609   */\n      calldataload\n        /* \"#utility.yul\":2580:2609   */\n      swap1\n      pop\n        /* \"#utility.yul\":2618:2651   */\n      tag_172\n        /* \"#utility.yul\":2645:2650   */\n      dup2\n        /* \"#utility.yul\":2618:2651   */\n      tag_112\n      jump\t// in\n    tag_172:\n        /* \"#utility.yul\":2518:2657   */\n      swap3\n      swap2\n      pop\n      pop\n      jump\t// out\n        /* \"#utility.yul\":2663:3137   */\n    tag_41:\n        /* \"#utility.yul\":2731:2737   */\n      0x00\n        /* \"#utility.yul\":2739:2745   */\n      0x00\n        /* \"#utility.yul\":2788:2790   */\n      0x40\n        /* \"#utility.yul\":2776:2785   */\n      dup4\n        /* \"#utility.yul\":2767:2774   */\n      dup6\n        /* \"#utility.yul\":2763:2786   */\n      sub\n        /* \"#utility.yul\":2759:2791   */\n      slt\n        /* \"#utility.yul\":2756:2875   */\n      iszero\n      tag_174\n      jumpi\n        /* \"#utility.yul\":2794:2873   */\n      tag_175\n      tag_101\n      jump\t// in\n    tag_175:\n        /* \"#utility.yul\":2756:2875   */\n    tag_174:\n        /* \"#utility.yul\":2914:2915   */\n      0x00\n        /* \"#utility.yul\":2939:2992   */\n      tag_176\n        /* \"#utility.yul\":2984:2991   */\n      dup6\n        /* \"#utility.yul\":2975:2981   */\n      dup3\n        /* \"#utility.yul\":2964:2973   */\n      dup7\n        /* \"#utility.yul\":2960:2982   */\n      add\n        /* \"#utility.yul\":2939:2992   */\n      tag_106\n      jump\t// in\n    tag_176:\n        /* \"#utility.yul\":2929:2992   */\n      swap3\n      pop\n        /* \"#utility.yul\":2885:3002   */\n      pop\n        /* \"#utility.yul\":3041:3043   */\n      0x20\n        /* \"#utility.yul\":3067:3120   */\n      tag_177\n        /* \"#utility.yul\":3112:3119   */\n      dup6\n        /* \"#utility.yul\":3103:3109   */\n      dup3\n        /* \"#utility.yul\":3092:3101   */\n      dup7\n        /* \"#utility.yul\":3088:3110   */\n      add\n        /* \"#utility.yul\":3067:3120   */\n      tag_113\n      jump\t// in\n    tag_177:\n        /* \"#utility.yul\":3057:3120   */\n      swap2\n      pop\n        /* \"#utility.yul\":3012:3130   */\n      pop\n        /* \"#utility.yul\":2663:3137   */\n      swap3\n      pop\n      swap3\n      swap1\n      pop\n      jump\t// out\n        /* \"#utility.yul\":3143:3233   */\n    tag_114:\n        /* \"#utility.yul\":3177:3184   */\n      0x00\n        /* \"#utility.yul\":3220:3225   */\n      dup2\n        /* \"#utility.yul\":3213:3226   */\n      iszero\n        /* \"#utility.yul\":3206:3227   */\n      iszero\n        /* \"#utility.yul\":3195:3227   */\n      swap1\n      pop\n        /* \"#utility.yul\":3143:3233   */\n      swap2\n      swap1\n      pop\n      jump\t// out\n        /* \"#utility.yul\":3239:3348   */\n    tag_115:\n        /* \"#utility.yul\":3320:3341   */\n      tag_180\n        /* \"#utility.yul\":3335:3340   */\n      dup2\n        /* \"#utility.yul\":3320:3341   */\n      tag_114\n      jump\t// in\n    tag_180:\n        /* \"#utility.yul\":3315:3318   */\n      dup3\n        /* \"#utility.yul\":3308:3342   */\n      mstore\n        /* \"#utility.yul\":3239:3348   */\n      pop\n      pop\n      jump\t// out\n        /* \"#utility.yul\":3354:3564   */\n    tag_47:\n        /* \"#utility.yul\":3441:3445   */\n      0x00\n        /* \"#utility.yul\":3479:3481   */\n      0x20\n        /* \"#utility.yul\":3468:3477   */\n      dup3\n        /* \"#utility.yul\":3464:3482   */\n      add\n        /* \"#utility.yul\":3456:3482   */\n      swap1\n      pop\n        /* \"#utility.yul\":3492:3557   */\n      tag_182\n        /* \"#utility.yul\":3554:3555   */\n      0x00\n        /* \"#utility.yul\":3543:3552   */\n      dup4\n        /* \"#utility.yul\":3539:3556   */\n      add\n        /* \"#utility.yul\":3530:3536   */\n      dup5\n        /* \"#utility.yul\":3492:3557   */\n      tag_115\n      jump\t// in\n    tag_182:\n        /* \"#utility.yul\":3354:3564   */\n      swap3\n      swap2\n      pop\n      pop\n      jump\t// out\n        /* \"#utility.yul\":3570:3739   */\n    tag_116:\n        /* \"#utility.yul\":3654:3665   */\n      0x00\n        /* \"#utility.yul\":3688:3694   */\n      dup3\n        /* \"#utility.yul\":3683:3686   */\n      dup3\n        /* \"#utility.yul\":3676:3695   */\n      mstore\n        /* \"#utility.yul\":3728:3732   */\n      0x20\n        /* \"#utility.yul\":3723:3726   */\n      dup3\n        /* \"#utility.yul\":3719:3733   */\n      add\n        /* \"#utility.yul\":3704:3733   */\n      swap1\n      pop\n        /* \"#utility.yul\":3570:3739   */\n      swap3\n      swap2\n      pop\n      pop\n      jump\t// out\n        /* \"#utility.yul\":3745:3966   */\n    tag_117:\n        /* \"#utility.yul\":3885:3919   */\n      0x746869732066756e6374696f6e206f6e6c792063616c6c206279206f776e6572\n        /* \"#utility.yul\":3881:3882   */\n      0x00\n        /* \"#utility.yul\":3873:3879   */\n      dup3\n        /* \"#utility.yul\":3869:3883   */\n      add\n        /* \"#utility.yul\":3862:3920   */\n      mstore\n        /* \"#utility.yul\":3954:3958   */\n      0x2121000000000000000000000000000000000000000000000000000000000000\n        /* \"#utility.yul\":3949:3951   */\n      0x20\n        /* \"#utility.yul\":3941:3947   */\n      dup3\n        /* \"#utility.yul\":3937:3952   */\n      add\n        /* \"#utility.yul\":3930:3959   */\n      mstore\n        /* \"#utility.yul\":3745:3966   */\n      pop\n      jump\t// out\n        /* \"#utility.yul\":3972:4338   */\n    tag_118:\n        /* \"#utility.yul\":4114:4117   */\n      0x00\n        /* \"#utility.yul\":4135:4202   */\n      tag_186\n        /* \"#utility.yul\":4199:4201   */\n      0x22\n        /* \"#utility.yul\":4194:4197   */\n      dup4\n        /* \"#utility.yul\":4135:4202   */\n      tag_116\n      jump\t// in\n    tag_186:\n        /* \"#utility.yul\":4128:4202   */\n      swap2\n      pop\n        /* \"#utility.yul\":4211:4304   */\n      tag_187\n        /* \"#utility.yul\":4300:4303   */\n      dup3\n        /* \"#utility.yul\":4211:4304   */\n      tag_117\n      jump\t// in\n    tag_187:\n        /* \"#utility.yul\":4329:4331   */\n      0x40\n        /* \"#utility.yul\":4324:4327   */\n      dup3\n        /* \"#utility.yul\":4320:4332   */\n      add\n        /* \"#utility.yul\":4313:4332   */\n      swap1\n      pop\n        /* \"#utility.yul\":3972:4338   */\n      swap2\n      swap1\n      pop\n      jump\t// out\n        /* \"#utility.yul\":4344:4763   */\n    tag_55:\n        /* \"#utility.yul\":4510:4514   */\n      0x00\n        /* \"#utility.yul\":4548:4550   */\n      0x20\n        /* \"#utility.yul\":4537:4546   */\n      dup3\n        /* \"#utility.yul\":4533:4551   */\n      add\n        /* \"#utility.yul\":4525:4551   */\n      swap1\n      pop\n        /* \"#utility.yul\":4597:4606   */\n      dup2\n        /* \"#utility.yul\":4591:4595   */\n      dup2\n        /* \"#utility.yul\":4587:4607   */\n      sub\n        /* \"#utility.yul\":4583:4584   */\n      0x00\n        /* \"#utility.yul\":4572:4581   */\n      dup4\n        /* \"#utility.yul\":4568:4585   */\n      add\n        /* \"#utility.yul\":4561:4608   */\n      mstore\n        /* \"#utility.yul\":4625:4756   */\n      tag_189\n        /* \"#utility.yul\":4751:4755   */\n      dup2\n        /* \"#utility.yul\":4625:4756   */\n      tag_118\n      jump\t// in\n    tag_189:\n        /* \"#utility.yul\":4617:4756   */\n      swap1\n      pop\n        /* \"#utility.yul\":4344:4763   */\n      swap2\n      swap1\n      pop\n      jump\t// out\n        /* \"#utility.yul\":4769:4940   */\n    tag_119:\n        /* \"#utility.yul\":4909:4932   */\n      0x546172676574206973206e6f7420726561636865640000000000000000000000\n        /* \"#utility.yul\":4905:4906   */\n      0x00\n        /* \"#utility.yul\":4897:4903   */\n      dup3\n        /* \"#utility.yul\":4893:4907   */\n      add\n        /* \"#utility.yul\":4886:4933   */\n      mstore\n        /* \"#utility.yul\":4769:4940   */\n      pop\n      jump\t// out\n        /* \"#utility.yul\":4946:5312   */\n    tag_120:\n        /* \"#utility.yul\":5088:5091   */\n      0x00\n        /* \"#utility.yul\":5109:5176   */\n      tag_192\n        /* \"#utility.yul\":5173:5175   */\n      0x15\n        /* \"#utility.yul\":5168:5171   */\n      dup4\n        /* \"#utility.yul\":5109:5176   */\n      tag_116\n      jump\t// in\n    tag_192:\n        /* \"#utility.yul\":5102:5176   */\n      swap2\n      pop\n        /* \"#utility.yul\":5185:5278   */\n      tag_193\n        /* \"#utility.yul\":5274:5277   */\n      dup3\n        /* \"#utility.yul\":5185:5278   */\n      tag_119\n      jump\t// in\n    tag_193:\n        /* \"#utility.yul\":5303:5305   */\n      0x20\n        /* \"#utility.yul\":5298:5301   */\n      dup3\n        /* \"#utility.yul\":5294:5306   */\n      add\n        /* \"#utility.yul\":5287:5306   */\n      swap1\n      pop\n        /* \"#utility.yul\":4946:5312   */\n      swap2\n      swap1\n      pop\n      jump\t// out\n        /* \"#utility.yul\":5318:5737   */\n    tag_62:\n        /* \"#utility.yul\":5484:5488   */\n      0x00\n        /* \"#utility.yul\":5522:5524   */\n      0x20\n        /* \"#utility.yul\":5511:5520   */\n      dup3\n        /* \"#utility.yul\":5507:5525   */\n      add\n        /* \"#utility.yul\":5499:5525   */\n      swap1\n      pop\n        /* \"#utility.yul\":5571:5580   */\n      dup2\n        /* \"#utility.yul\":5565:5569   */\n      dup2\n        /* \"#utility.yul\":5561:5581   */\n      sub\n        /* \"#utility.yul\":5557:5558   */\n      0x00\n        /* \"#utility.yul\":5546:5555   */\n      dup4\n        /* \"#utility.yul\":5542:5559   */\n      add\n        /* \"#utility.yul\":5535:5582   */\n      mstore\n        /* \"#utility.yul\":5599:5730   */\n      tag_195\n        /* \"#utility.yul\":5725:5729   */\n      dup2\n        /* \"#utility.yul\":5599:5730   */\n      tag_120\n      jump\t// in\n    tag_195:\n        /* \"#utility.yul\":5591:5730   */\n      swap1\n      pop\n        /* \"#utility.yul\":5318:5737   */\n      swap2\n      swap1\n      pop\n      jump\t// out\n        /* \"#utility.yul\":5743:5890   */\n    tag_121:\n        /* \"#utility.yul\":5844:5855   */\n      0x00\n        /* \"#utility.yul\":5881:5884   */\n      dup2\n        /* \"#utility.yul\":5866:5884   */\n      swap1\n      pop\n        /* \"#utility.yul\":5743:5890   */\n      swap3\n      swap2\n      pop\n      pop\n      jump\t// out\n        /* \"#utility.yul\":5896:6010   */\n    tag_122:\n      pop\n      jump\t// out\n        /* \"#utility.yul\":6016:6414   */\n    tag_123:\n        /* \"#utility.yul\":6175:6178   */\n      0x00\n        /* \"#utility.yul\":6196:6279   */\n      tag_199\n        /* \"#utility.yul\":6277:6278   */\n      0x00\n        /* \"#utility.yul\":6272:6275   */\n      dup4\n        /* \"#utility.yul\":6196:6279   */\n      tag_121\n      jump\t// in\n    tag_199:\n        /* \"#utility.yul\":6189:6279   */\n      swap2\n      pop\n        /* \"#utility.yul\":6288:6381   */\n      tag_200\n        /* \"#utility.yul\":6377:6380   */\n      dup3\n        /* \"#utility.yul\":6288:6381   */\n      tag_122\n      jump\t// in\n    tag_200:\n        /* \"#utility.yul\":6406:6407   */\n      0x00\n        /* \"#utility.yul\":6401:6404   */\n      dup3\n        /* \"#utility.yul\":6397:6408   */\n      add\n        /* \"#utility.yul\":6390:6408   */\n      swap1\n      pop\n        /* \"#utility.yul\":6016:6414   */\n      swap2\n      swap1\n      pop\n      jump\t// out\n        /* \"#utility.yul\":6420:6799   */\n    tag_66:\n        /* \"#utility.yul\":6604:6607   */\n      0x00\n        /* \"#utility.yul\":6626:6773   */\n      tag_202\n        /* \"#utility.yul\":6769:6772   */\n      dup3\n        /* \"#utility.yul\":6626:6773   */\n      tag_123\n      jump\t// in\n    tag_202:\n        /* \"#utility.yul\":6619:6773   */\n      swap2\n      pop\n        /* \"#utility.yul\":6790:6793   */\n      dup2\n        /* \"#utility.yul\":6783:6793   */\n      swap1\n      pop\n        /* \"#utility.yul\":6420:6799   */\n      swap2\n      swap1\n      pop\n      jump\t// out\n        /* \"#utility.yul\":6805:6964   */\n    tag_124:\n        /* \"#utility.yul\":6945:6956   */\n      0x7478206661696c65640000000000000000000000000000000000000000000000\n        /* \"#utility.yul\":6941:6942   */\n      0x00\n        /* \"#utility.yul\":6933:6939   */\n      dup3\n        /* \"#utility.yul\":6929:6943   */\n      add\n        /* \"#utility.yul\":6922:6957   */\n      mstore\n        /* \"#utility.yul\":6805:6964   */\n      pop\n      jump\t// out\n        /* \"#utility.yul\":6970:7335   */\n    tag_125:\n        /* \"#utility.yul\":7112:7115   */\n      0x00\n        /* \"#utility.yul\":7133:7199   */\n      tag_205\n        /* \"#utility.yul\":7197:7198   */\n      0x09\n        /* \"#utility.yul\":7192:7195   */\n      dup4\n        /* \"#utility.yul\":7133:7199   */\n      tag_116\n      jump\t// in\n    tag_205:\n        /* \"#utility.yul\":7126:7199   */\n      swap2\n      pop\n        /* \"#utility.yul\":7208:7301   */\n      tag_206\n        /* \"#utility.yul\":7297:7300   */\n      dup3\n        /* \"#utility.yul\":7208:7301   */\n      tag_124\n      jump\t// in\n    tag_206:\n        /* \"#utility.yul\":7326:7328   */\n      0x20\n        /* \"#utility.yul\":7321:7324   */\n      dup3\n        /* \"#utility.yul\":7317:7329   */\n      add\n        /* \"#utility.yul\":7310:7329   */\n      swap1\n      pop\n        /* \"#utility.yul\":6970:7335   */\n      swap2\n      swap1\n      pop\n      jump\t// out\n        /* \"#utility.yul\":7341:7760   */\n    tag_72:\n        /* \"#utility.yul\":7507:7511   */\n      0x00\n        /* \"#utility.yul\":7545:7547   */\n      0x20\n        /* \"#utility.yul\":7534:7543   */\n      dup3\n        /* \"#utility.yul\":7530:7548   */\n      add\n        /* \"#utility.yul\":7522:7548   */\n      swap1\n      pop\n        /* \"#utility.yul\":7594:7603   */\n      dup2\n        /* \"#utility.yul\":7588:7592   */\n      dup2\n        /* \"#utility.yul\":7584:7604   */\n      sub\n        /* \"#utility.yul\":7580:7581   */\n      0x00\n        /* \"#utility.yul\":7569:7578   */\n      dup4\n        /* \"#utility.yul\":7565:7582   */\n      add\n        /* \"#utility.yul\":7558:7605   */\n      mstore\n        /* \"#utility.yul\":7622:7753   */\n      tag_208\n        /* \"#utility.yul\":7748:7752   */\n      dup2\n        /* \"#utility.yul\":7622:7753   */\n      tag_125\n      jump\t// in\n    tag_208:\n        /* \"#utility.yul\":7614:7753   */\n      swap1\n      pop\n        /* \"#utility.yul\":7341:7760   */\n      swap2\n      swap1\n      pop\n      jump\t// out\n        /* \"#utility.yul\":7766:7946   */\n    tag_126:\n        /* \"#utility.yul\":7814:7891   */\n      0x4e487b7100000000000000000000000000000000000000000000000000000000\n        /* \"#utility.yul\":7811:7812   */\n      0x00\n        /* \"#utility.yul\":7804:7892   */\n      mstore\n        /* \"#utility.yul\":7911:7915   */\n      0x11\n        /* \"#utility.yul\":7908:7909   */\n      0x04\n        /* \"#utility.yul\":7901:7916   */\n      mstore\n        /* \"#utility.yul\":7935:7939   */\n      0x24\n        /* \"#utility.yul\":7932:7933   */\n      0x00\n        /* \"#utility.yul\":7925:7940   */\n      revert\n        /* \"#utility.yul\":7952:8143   */\n    tag_75:\n        /* \"#utility.yul\":7992:7995   */\n      0x00\n        /* \"#utility.yul\":8011:8031   */\n      tag_211\n        /* \"#utility.yul\":8029:8030   */\n      dup3\n        /* \"#utility.yul\":8011:8031   */\n      tag_108\n      jump\t// in\n    tag_211:\n        /* \"#utility.yul\":8006:8031   */\n      swap2\n      pop\n        /* \"#utility.yul\":8045:8065   */\n      tag_212\n        /* \"#utility.yul\":8063:8064   */\n      dup4\n        /* \"#utility.yul\":8045:8065   */\n      tag_108\n      jump\t// in\n    tag_212:\n        /* \"#utility.yul\":8040:8065   */\n      swap3\n      pop\n        /* \"#utility.yul\":8088:8089   */\n      dup3\n        /* \"#utility.yul\":8085:8086   */\n      dup3\n        /* \"#utility.yul\":8081:8090   */\n      add\n        /* \"#utility.yul\":8074:8090   */\n      swap1\n      pop\n        /* \"#utility.yul\":8109:8112   */\n      dup1\n        /* \"#utility.yul\":8106:8107   */\n      dup3\n        /* \"#utility.yul\":8103:8113   */\n      gt\n        /* \"#utility.yul\":8100:8136   */\n      iszero\n      tag_213\n      jumpi\n        /* \"#utility.yul\":8116:8134   */\n      tag_214\n      tag_126\n      jump\t// in\n    tag_214:\n        /* \"#utility.yul\":8100:8136   */\n    tag_213:\n        /* \"#utility.yul\":7952:8143   */\n      swap3\n      swap2\n      pop\n      pop\n      jump\t// out\n        /* \"#utility.yul\":8149:8316   */\n    tag_127:\n        /* \"#utility.yul\":8289:8308   */\n      0x77696e646f7720697320636c6f73656420000000000000000000000000000000\n        /* \"#utility.yul\":8285:8286   */\n      0x00\n        /* \"#utility.yul\":8277:8283   */\n      dup3\n        /* \"#utility.yul\":8273:8287   */\n      add\n        /* \"#utility.yul\":8266:8309   */\n      mstore\n        /* \"#utility.yul\":8149:8316   */\n      pop\n      jump\t// out\n        /* \"#utility.yul\":8322:8688   */\n    tag_128:\n        /* \"#utility.yul\":8464:8467   */\n      0x00\n        /* \"#utility.yul\":8485:8552   */\n      tag_217\n        /* \"#utility.yul\":8549:8551   */\n      0x11\n        /* \"#utility.yul\":8544:8547   */\n      dup4\n        /* \"#utility.yul\":8485:8552   */\n      tag_116\n      jump\t// in\n    tag_217:\n        /* \"#utility.yul\":8478:8552   */\n      swap2\n      pop\n        /* \"#utility.yul\":8561:8654   */\n      tag_218\n        /* \"#utility.yul\":8650:8653   */\n      dup3\n        /* \"#utility.yul\":8561:8654   */\n      tag_127\n      jump\t// in\n    tag_218:\n        /* \"#utility.yul\":8679:8681   */\n      0x20\n        /* \"#utility.yul\":8674:8677   */\n      dup3\n        /* \"#utility.yul\":8670:8682   */\n      add\n        /* \"#utility.yul\":8663:8682   */\n      swap1\n      pop\n        /* \"#utility.yul\":8322:8688   */\n      swap2\n      swap1\n      pop\n      jump\t// out\n        /* \"#utility.yul\":8694:9113   */\n    tag_78:\n        /* \"#utility.yul\":8860:8864   */\n      0x00\n        /* \"#utility.yul\":8898:8900   */\n      0x20\n        /* \"#utility.yul\":8887:8896   */\n      dup3\n        /* \"#utility.yul\":8883:8901   */\n      add\n        /* \"#utility.yul\":8875:8901   */\n      swap1\n      pop\n        /* \"#utility.yul\":8947:8956   */\n      dup2\n        /* \"#utility.yul\":8941:8945   */\n      dup2\n        /* \"#utility.yul\":8937:8957   */\n      sub\n        /* \"#utility.yul\":8933:8934   */\n      0x00\n        /* \"#utility.yul\":8922:8931   */\n      dup4\n        /* \"#utility.yul\":8918:8935   */\n      add\n        /* \"#utility.yul\":8911:8958   */\n      mstore\n        /* \"#utility.yul\":8975:9106   */\n      tag_220\n        /* \"#utility.yul\":9101:9105   */\n      dup2\n        /* \"#utility.yul\":8975:9106   */\n      tag_128\n      jump\t// in\n    tag_220:\n        /* \"#utility.yul\":8967:9106   */\n      swap1\n      pop\n        /* \"#utility.yul\":8694:9113   */\n      swap2\n      swap1\n      pop\n      jump\t// out\n        /* \"#utility.yul\":9119:9289   */\n    tag_129:\n        /* \"#utility.yul\":9259:9281   */\n      0x706c656173652073656e64206d6f726520657468000000000000000000000000\n        /* \"#utility.yul\":9255:9256   */\n      0x00\n        /* \"#utility.yul\":9247:9253   */\n      dup3\n        /* \"#utility.yul\":9243:9257   */\n      add\n        /* \"#utility.yul\":9236:9282   */\n      mstore\n        /* \"#utility.yul\":9119:9289   */\n      pop\n      jump\t// out\n        /* \"#utility.yul\":9295:9661   */\n    tag_130:\n        /* \"#utility.yul\":9437:9440   */\n      0x00\n        /* \"#utility.yul\":9458:9525   */\n      tag_223\n        /* \"#utility.yul\":9522:9524   */\n      0x14\n        /* \"#utility.yul\":9517:9520   */\n      dup4\n        /* \"#utility.yul\":9458:9525   */\n      tag_116\n      jump\t// in\n    tag_223:\n        /* \"#utility.yul\":9451:9525   */\n      swap2\n      pop\n        /* \"#utility.yul\":9534:9627   */\n      tag_224\n        /* \"#utility.yul\":9623:9626   */\n      dup3\n        /* \"#utility.yul\":9534:9627   */\n      tag_129\n      jump\t// in\n    tag_224:\n        /* \"#utility.yul\":9652:9654   */\n      0x20\n        /* \"#utility.yul\":9647:9650   */\n      dup3\n        /* \"#utility.yul\":9643:9655   */\n      add\n        /* \"#utility.yul\":9636:9655   */\n      swap1\n      pop\n        /* \"#utility.yul\":9295:9661   */\n      swap2\n      swap1\n      pop\n      jump\t// out\n        /* \"#utility.yul\":9667:10086   */\n    tag_83:\n        /* \"#utility.yul\":9833:9837   */\n      0x00\n        /* \"#utility.yul\":9871:9873   */\n      0x20\n        /* \"#utility.yul\":9860:9869   */\n      dup3\n        /* \"#utility.yul\":9856:9874   */\n      add\n        /* \"#utility.yul\":9848:9874   */\n      swap1\n      pop\n        /* \"#utility.yul\":9920:9929   */\n      dup2\n        /* \"#utility.yul\":9914:9918   */\n      dup2\n        /* \"#utility.yul\":9910:9930   */\n      sub\n        /* \"#utility.yul\":9906:9907   */\n      0x00\n        /* \"#utility.yul\":9895:9904   */\n      dup4\n        /* \"#utility.yul\":9891:9908   */\n      add\n        /* \"#utility.yul\":9884:9931   */\n      mstore\n        /* \"#utility.yul\":9948:10079   */\n      tag_226\n        /* \"#utility.yul\":10074:10078   */\n      dup2\n        /* \"#utility.yul\":9948:10079   */\n      tag_130\n      jump\t// in\n    tag_226:\n        /* \"#utility.yul\":9940:10079   */\n      swap1\n      pop\n        /* \"#utility.yul\":9667:10086   */\n      swap2\n      swap1\n      pop\n      jump\t// out\n        /* \"#utility.yul\":10092:10197   */\n    tag_131:\n        /* \"#utility.yul\":10128:10135   */\n      0x00\n        /* \"#utility.yul\":10168:10190   */\n      0xffffffffffffffffffff\n        /* \"#utility.yul\":10161:10166   */\n      dup3\n        /* \"#utility.yul\":10157:10191   */\n      and\n        /* \"#utility.yul\":10146:10191   */\n      swap1\n      pop\n        /* \"#utility.yul\":10092:10197   */\n      swap2\n      swap1\n      pop\n      jump\t// out\n        /* \"#utility.yul\":10203:10323   */\n    tag_132:\n        /* \"#utility.yul\":10275:10298   */\n      tag_229\n        /* \"#utility.yul\":10292:10297   */\n      dup2\n        /* \"#utility.yul\":10275:10298   */\n      tag_131\n      jump\t// in\n    tag_229:\n        /* \"#utility.yul\":10268:10273   */\n      dup2\n        /* \"#utility.yul\":10265:10299   */\n      eq\n        /* \"#utility.yul\":10255:10317   */\n      tag_230\n      jumpi\n        /* \"#utility.yul\":10313:10314   */\n      0x00\n        /* \"#utility.yul\":10310:10311   */\n      0x00\n        /* \"#utility.yul\":10303:10315   */\n      revert\n        /* \"#utility.yul\":10255:10317   */\n    tag_230:\n        /* \"#utility.yul\":10203:10323   */\n      pop\n      jump\t// out\n        /* \"#utility.yul\":10329:10470   */\n    tag_133:\n        /* \"#utility.yul\":10385:10390   */\n      0x00\n        /* \"#utility.yul\":10416:10422   */\n      dup2\n        /* \"#utility.yul\":10410:10423   */\n      mload\n        /* \"#utility.yul\":10401:10423   */\n      swap1\n      pop\n        /* \"#utility.yul\":10432:10464   */\n      tag_232\n        /* \"#utility.yul\":10458:10463   */\n      dup2\n        /* \"#utility.yul\":10432:10464   */\n      tag_132\n      jump\t// in\n    tag_232:\n        /* \"#utility.yul\":10329:10470   */\n      swap3\n      swap2\n      pop\n      pop\n      jump\t// out\n        /* \"#utility.yul\":10476:10596   */\n    tag_134:\n        /* \"#utility.yul\":10548:10571   */\n      tag_234\n        /* \"#utility.yul\":10565:10570   */\n      dup2\n        /* \"#utility.yul\":10548:10571   */\n      tag_110\n      jump\t// in\n    tag_234:\n        /* \"#utility.yul\":10541:10546   */\n      dup2\n        /* \"#utility.yul\":10538:10572   */\n      eq\n        /* \"#utility.yul\":10528:10590   */\n      tag_235\n      jumpi\n        /* \"#utility.yul\":10586:10587   */\n      0x00\n        /* \"#utility.yul\":10583:10584   */\n      0x00\n        /* \"#utility.yul\":10576:10588   */\n      revert\n        /* \"#utility.yul\":10528:10590   */\n    tag_235:\n        /* \"#utility.yul\":10476:10596   */\n      pop\n      jump\t// out\n        /* \"#utility.yul\":10602:10743   */\n    tag_135:\n        /* \"#utility.yul\":10658:10663   */\n      0x00\n        /* \"#utility.yul\":10689:10695   */\n      dup2\n        /* \"#utility.yul\":10683:10696   */\n      mload\n        /* \"#utility.yul\":10674:10696   */\n      swap1\n      pop\n        /* \"#utility.yul\":10705:10737   */\n      tag_237\n        /* \"#utility.yul\":10731:10736   */\n      dup2\n        /* \"#utility.yul\":10705:10737   */\n      tag_134\n      jump\t// in\n    tag_237:\n        /* \"#utility.yul\":10602:10743   */\n      swap3\n      swap2\n      pop\n      pop\n      jump\t// out\n        /* \"#utility.yul\":10749:10892   */\n    tag_136:\n        /* \"#utility.yul\":10806:10811   */\n      0x00\n        /* \"#utility.yul\":10837:10843   */\n      dup2\n        /* \"#utility.yul\":10831:10844   */\n      mload\n        /* \"#utility.yul\":10822:10844   */\n      swap1\n      pop\n        /* \"#utility.yul\":10853:10886   */\n      tag_239\n        /* \"#utility.yul\":10880:10885   */\n      dup2\n        /* \"#utility.yul\":10853:10886   */\n      tag_112\n      jump\t// in\n    tag_239:\n        /* \"#utility.yul\":10749:10892   */\n      swap3\n      swap2\n      pop\n      pop\n      jump\t// out\n        /* \"#utility.yul\":10898:11869   */\n    tag_89:\n        /* \"#utility.yul\":11001:11007   */\n      0x00\n        /* \"#utility.yul\":11009:11015   */\n      0x00\n        /* \"#utility.yul\":11017:11023   */\n      0x00\n        /* \"#utility.yul\":11025:11031   */\n      0x00\n        /* \"#utility.yul\":11033:11039   */\n      0x00\n        /* \"#utility.yul\":11082:11085   */\n      0xa0\n        /* \"#utility.yul\":11070:11079   */\n      dup7\n        /* \"#utility.yul\":11061:11068   */\n      dup9\n        /* \"#utility.yul\":11057:11080   */\n      sub\n        /* \"#utility.yul\":11053:11086   */\n      slt\n        /* \"#utility.yul\":11050:11170   */\n      iszero\n      tag_241\n      jumpi\n        /* \"#utility.yul\":11089:11168   */\n      tag_242\n      tag_101\n      jump\t// in\n    tag_242:\n        /* \"#utility.yul\":11050:11170   */\n    tag_241:\n        /* \"#utility.yul\":11209:11210   */\n      0x00\n        /* \"#utility.yul\":11234:11297   */\n      tag_243\n        /* \"#utility.yul\":11289:11296   */\n      dup9\n        /* \"#utility.yul\":11280:11286   */\n      dup3\n        /* \"#utility.yul\":11269:11278   */\n      dup10\n        /* \"#utility.yul\":11265:11287   */\n      add\n        /* \"#utility.yul\":11234:11297   */\n      tag_133\n      jump\t// in\n    tag_243:\n        /* \"#utility.yul\":11224:11297   */\n      swap6\n      pop\n        /* \"#utility.yul\":11180:11307   */\n      pop\n        /* \"#utility.yul\":11346:11348   */\n      0x20\n        /* \"#utility.yul\":11372:11435   */\n      tag_244\n        /* \"#utility.yul\":11427:11434   */\n      dup9\n        /* \"#utility.yul\":11418:11424   */\n      dup3\n        /* \"#utility.yul\":11407:11416   */\n      dup10\n        /* \"#utility.yul\":11403:11425   */\n      add\n        /* \"#utility.yul\":11372:11435   */\n      tag_135\n      jump\t// in\n    tag_244:\n        /* \"#utility.yul\":11362:11435   */\n      swap5\n      pop\n        /* \"#utility.yul\":11317:11445   */\n      pop\n        /* \"#utility.yul\":11484:11486   */\n      0x40\n        /* \"#utility.yul\":11510:11574   */\n      tag_245\n        /* \"#utility.yul\":11566:11573   */\n      dup9\n        /* \"#utility.yul\":11557:11563   */\n      dup3\n        /* \"#utility.yul\":11546:11555   */\n      dup10\n        /* \"#utility.yul\":11542:11564   */\n      add\n        /* \"#utility.yul\":11510:11574   */\n      tag_136\n      jump\t// in\n    tag_245:\n        /* \"#utility.yul\":11500:11574   */\n      swap4\n      pop\n        /* \"#utility.yul\":11455:11584   */\n      pop\n        /* \"#utility.yul\":11623:11625   */\n      0x60\n        /* \"#utility.yul\":11649:11713   */\n      tag_246\n        /* \"#utility.yul\":11705:11712   */\n      dup9\n        /* \"#utility.yul\":11696:11702   */\n      dup3\n        /* \"#utility.yul\":11685:11694   */\n      dup10\n        /* \"#utility.yul\":11681:11703   */\n      add\n        /* \"#utility.yul\":11649:11713   */\n      tag_136\n      jump\t// in\n    tag_246:\n        /* \"#utility.yul\":11639:11713   */\n      swap3\n      pop\n        /* \"#utility.yul\":11594:11723   */\n      pop\n        /* \"#utility.yul\":11762:11765   */\n      0x80\n        /* \"#utility.yul\":11789:11852   */\n      tag_247\n        /* \"#utility.yul\":11844:11851   */\n      dup9\n        /* \"#utility.yul\":11835:11841   */\n      dup3\n        /* \"#utility.yul\":11824:11833   */\n      dup10\n        /* \"#utility.yul\":11820:11842   */\n      add\n        /* \"#utility.yul\":11789:11852   */\n      tag_133\n      jump\t// in\n    tag_247:\n        /* \"#utility.yul\":11779:11852   */\n      swap2\n      pop\n        /* \"#utility.yul\":11733:11862   */\n      pop\n        /* \"#utility.yul\":10898:11869   */\n      swap3\n      swap6\n      pop\n      swap3\n      swap6\n      swap1\n      swap4\n      pop\n      jump\t// out\n        /* \"#utility.yul\":11875:12285   */\n    tag_97:\n        /* \"#utility.yul\":11915:11922   */\n      0x00\n        /* \"#utility.yul\":11938:11958   */\n      tag_249\n        /* \"#utility.yul\":11956:11957   */\n      dup3\n        /* \"#utility.yul\":11938:11958   */\n      tag_108\n      jump\t// in\n    tag_249:\n        /* \"#utility.yul\":11933:11958   */\n      swap2\n      pop\n        /* \"#utility.yul\":11972:11992   */\n      tag_250\n        /* \"#utility.yul\":11990:11991   */\n      dup4\n        /* \"#utility.yul\":11972:11992   */\n      tag_108\n      jump\t// in\n    tag_250:\n        /* \"#utility.yul\":11967:11992   */\n      swap3\n      pop\n        /* \"#utility.yul\":12027:12028   */\n      dup3\n        /* \"#utility.yul\":12024:12025   */\n      dup3\n        /* \"#utility.yul\":12020:12029   */\n      mul\n        /* \"#utility.yul\":12049:12079   */\n      tag_251\n        /* \"#utility.yul\":12067:12078   */\n      dup2\n        /* \"#utility.yul\":12049:12079   */\n      tag_108\n      jump\t// in\n    tag_251:\n        /* \"#utility.yul\":12038:12079   */\n      swap2\n      pop\n        /* \"#utility.yul\":12228:12229   */\n      dup3\n        /* \"#utility.yul\":12219:12226   */\n      dup3\n        /* \"#utility.yul\":12215:12230   */\n      div\n        /* \"#utility.yul\":12212:12213   */\n      dup5\n        /* \"#utility.yul\":12209:12231   */\n      eq\n        /* \"#utility.yul\":12189:12190   */\n      dup4\n        /* \"#utility.yul\":12182:12191   */\n      iszero\n        /* \"#utility.yul\":12162:12245   */\n      or\n        /* \"#utility.yul\":12139:12278   */\n      tag_252\n      jumpi\n        /* \"#utility.yul\":12258:12276   */\n      tag_253\n      tag_126\n      jump\t// in\n    tag_253:\n        /* \"#utility.yul\":12139:12278   */\n    tag_252:\n        /* \"#utility.yul\":11923:12285   */\n      pop\n        /* \"#utility.yul\":11875:12285   */\n      swap3\n      swap2\n      pop\n      pop\n      jump\t// out\n        /* \"#utility.yul\":12291:12471   */\n    tag_137:\n        /* \"#utility.yul\":12339:12416   */\n      0x4e487b7100000000000000000000000000000000000000000000000000000000\n        /* \"#utility.yul\":12336:12337   */\n      0x00\n        /* \"#utility.yul\":12329:12417   */\n      mstore\n        /* \"#utility.yul\":12436:12440   */\n      0x12\n        /* \"#utility.yul\":12433:12434   */\n      0x04\n        /* \"#utility.yul\":12426:12441   */\n      mstore\n        /* \"#utility.yul\":12460:12464   */\n      0x24\n        /* \"#utility.yul\":12457:12458   */\n      0x00\n        /* \"#utility.yul\":12450:12465   */\n      revert\n        /* \"#utility.yul\":12477:12662   */\n    tag_99:\n        /* \"#utility.yul\":12517:12518   */\n      0x00\n        /* \"#utility.yul\":12534:12554   */\n      tag_256\n        /* \"#utility.yul\":12552:12553   */\n      dup3\n        /* \"#utility.yul\":12534:12554   */\n      tag_108\n      jump\t// in\n    tag_256:\n        /* \"#utility.yul\":12529:12554   */\n      swap2\n      pop\n        /* \"#utility.yul\":12568:12588   */\n      tag_257\n        /* \"#utility.yul\":12586:12587   */\n      dup4\n        /* \"#utility.yul\":12568:12588   */\n      tag_108\n      jump\t// in\n    tag_257:\n        /* \"#utility.yul\":12563:12588   */\n      swap3\n      pop\n        /* \"#utility.yul\":12607:12608   */\n      dup3\n        /* \"#utility.yul\":12597:12632   */\n      tag_258\n      jumpi\n        /* \"#utility.yul\":12612:12630   */\n      tag_259\n      tag_137\n      jump\t// in\n    tag_259:\n        /* \"#utility.yul\":12597:12632   */\n    tag_258:\n        /* \"#utility.yul\":12654:12655   */\n      dup3\n        /* \"#utility.yul\":12651:12652   */\n      dup3\n        /* \"#utility.yul\":12647:12656   */\n      div\n        /* \"#utility.yul\":12642:12656   */\n      swap1\n      pop\n        /* \"#utility.yul\":12477:12662   */\n      swap3\n      swap2\n      pop\n      pop\n      jump\t// out\n\n    auxdata: 0xa264697066735822122049c62f1cbe3c98df58d52eb7d4ffe304ec0be73fc10763581f2e392aaf9ed9cd64736f6c634300081e0033\n}\n",
				"bytecode": {
					"linkReferences": {},
					"object": "608060405234801561000f575f5ffd5b50604051610f1d380380610f1d83398181016040528101906100319190610110565b731b44f3514812d835eb1bdb0acb33d3fa3351ee4360035f6101000a81548173ffffffffffffffffffffffffffffffffffffffff021916908373ffffffffffffffffffffffffffffffffffffffff1602179055503360055f6101000a81548173ffffffffffffffffffffffffffffffffffffffff021916908373ffffffffffffffffffffffffffffffffffffffff16021790555042600181905550806002819055505061013b565b5f5ffd5b5f819050919050565b6100ef816100dd565b81146100f9575f5ffd5b50565b5f8151905061010a816100e6565b92915050565b5f60208284031215610125576101246100d9565b5b5f610132848285016100fc565b91505092915050565b610dd5806101485f395ff3fe608060405260043610610085575f3560e01c8063b60d428811610058578063b60d42881461012d578063bea4dfb514610137578063c092158d14610161578063da4658e014610189578063f2fde38b146101b357610085565b806313ffff01146100895780638da5cb5b146100b15780638edd6eb6146100db5780639f883a05146100f1575b5f5ffd5b348015610094575f5ffd5b506100af60048036038101906100aa91906107de565b6101db565b005b3480156100bc575f5ffd5b506100c56102ad565b6040516100d29190610818565b60405180910390f35b3480156100e6575f5ffd5b506100ef6102d2565b005b3480156100fc575f5ffd5b50610117600480360381019061011291906107de565b610462565b6040516101249190610849565b60405180910390f35b610135610476565b005b348015610142575f5ffd5b5061014b61058a565b604051610158919061087a565b60405180910390f35b34801561016c575f5ffd5b50610187600480360381019061018291906108bd565b610627565b005b348015610194575f5ffd5b5061019d61066c565b6040516101aa9190610915565b60405180910390f35b3480156101be575f5ffd5b506101d960048036038101906101d491906107de565b61067f565b005b60055f9054906101000a900473ffffffffffffffffffffffffffffffffffffffff1673ffffffffffffffffffffffffffffffffffffffff163373ffffffffffffffffffffffffffffffffffffffff161461026a576040517f08c379a0000000000000000000000000000000000000000000000000000000008152600401610261906109ae565b60405180910390fd5b8060045f6101000a81548173ffffffffffffffffffffffffffffffffffffffff021916908373ffffffffffffffffffffffffffffffffffffffff16021790555050565b60055f9054906101000a900473ffffffffffffffffffffffffffffffffffffffff1681565b68056bc75e2d631000006102e547610751565b1015610326576040517f08c379a000000000000000000000000000000000000000000000000000000000815260040161031d90610a16565b60405180910390fd5b60055f9054906101000a900473ffffffffffffffffffffffffffffffffffffffff1673ffffffffffffffffffffffffffffffffffffffff163373ffffffffffffffffffffffffffffffffffffffff16146103b5576040517f08c379a00000000000000000000000000000000000000000000000000000000081526004016103ac906109ae565b60405180910390fd5b5f3373ffffffffffffffffffffffffffffffffffffffff16476040516103da90610a61565b5f6040518083038185875af1925050503d805f8114610414576040519150601f19603f3d011682016040523d82523d5f602084013e610419565b606091505b5050809150508061045f576040517f08c379a000000000000000000000000000000000000000000000000000000000815260040161045690610abf565b60405180910390fd5b50565b5f602052805f5260405f205f915090505481565b426002546001546104879190610b0a565b116104c7576040517f08c379a00000000000000000000000000000000000000000000000000000000081526004016104be90610b87565b60405180910390fd5b68056bc75e2d631000006104da34610751565b101561051b576040517f08c379a000000000000000000000000000000000000000000000000000000000815260040161051290610bef565b60405180910390fd5b345f5f3373ffffffffffffffffffffffffffffffffffffffff1673ffffffffffffffffffffffffffffffffffffffff1681526020019081526020015f205f8282546105669190610b0a565b925050819055506001600560146101000a81548160ff021916908315150217905550565b5f5f60035f9054906101000a900473ffffffffffffffffffffffffffffffffffffffff1673ffffffffffffffffffffffffffffffffffffffff1663feaf968c6040518163ffffffff1660e01b815260040160a060405180830381865afa1580156105f6573d5f5f3e3d5ffd5b505050506040513d601f19601f8201168201806040525081019061061a9190610c8a565b5050509150508091505090565b805f5f8473ffffffffffffffffffffffffffffffffffffffff1673ffffffffffffffffffffffffffffffffffffffff1681526020019081526020015f20819055505050565b600560149054906101000a900460ff1681565b60055f9054906101000a900473ffffffffffffffffffffffffffffffffffffffff1673ffffffffffffffffffffffffffffffffffffffff163373ffffffffffffffffffffffffffffffffffffffff161461070e576040517f08c379a0000000000000000000000000000000000000000000000000000000008152600401610705906109ae565b60405180910390fd5b8060055f6101000a81548173ffffffffffffffffffffffffffffffffffffffff021916908373ffffffffffffffffffffffffffffffffffffffff16021790555050565b5f5f61075b61058a565b90506305f5e100818461076e9190610d01565b6107789190610d6f565b915050919050565b5f5ffd5b5f73ffffffffffffffffffffffffffffffffffffffff82169050919050565b5f6107ad82610784565b9050919050565b6107bd816107a3565b81146107c7575f5ffd5b50565b5f813590506107d8816107b4565b92915050565b5f602082840312156107f3576107f2610780565b5b5f610800848285016107ca565b91505092915050565b610812816107a3565b82525050565b5f60208201905061082b5f830184610809565b92915050565b5f819050919050565b61084381610831565b82525050565b5f60208201905061085c5f83018461083a565b92915050565b5f819050919050565b61087481610862565b82525050565b5f60208201905061088d5f83018461086b565b92915050565b61089c81610831565b81146108a6575f5ffd5b50565b5f813590506108b781610893565b92915050565b5f5f604083850312156108d3576108d2610780565b5b5f6108e0858286016107ca565b92505060206108f1858286016108a9565b9150509250929050565b5f8115159050919050565b61090f816108fb565b82525050565b5f6020820190506109285f830184610906565b92915050565b5f82825260208201905092915050565b7f746869732066756e6374696f6e206f6e6c792063616c6c206279206f776e65725f8201527f2121000000000000000000000000000000000000000000000000000000000000602082015250565b5f61099860228361092e565b91506109a38261093e565b604082019050919050565b5f6020820190508181035f8301526109c58161098c565b9050919050565b7f546172676574206973206e6f74207265616368656400000000000000000000005f82015250565b5f610a0060158361092e565b9150610a0b826109cc565b602082019050919050565b5f6020820190508181035f830152610a2d816109f4565b9050919050565b5f81905092915050565b50565b5f610a4c5f83610a34565b9150610a5782610a3e565b5f82019050919050565b5f610a6b82610a41565b9150819050919050565b7f7478206661696c656400000000000000000000000000000000000000000000005f82015250565b5f610aa960098361092e565b9150610ab482610a75565b602082019050919050565b5f6020820190508181035f830152610ad681610a9d565b9050919050565b7f4e487b71000000000000000000000000000000000000000000000000000000005f52601160045260245ffd5b5f610b1482610831565b9150610b1f83610831565b9250828201905080821115610b3757610b36610add565b5b92915050565b7f77696e646f7720697320636c6f736564200000000000000000000000000000005f82015250565b5f610b7160118361092e565b9150610b7c82610b3d565b602082019050919050565b5f6020820190508181035f830152610b9e81610b65565b9050919050565b7f706c656173652073656e64206d6f7265206574680000000000000000000000005f82015250565b5f610bd960148361092e565b9150610be482610ba5565b602082019050919050565b5f6020820190508181035f830152610c0681610bcd565b9050919050565b5f69ffffffffffffffffffff82169050919050565b610c2b81610c0d565b8114610c35575f5ffd5b50565b5f81519050610c4681610c22565b92915050565b610c5581610862565b8114610c5f575f5ffd5b50565b5f81519050610c7081610c4c565b92915050565b5f81519050610c8481610893565b92915050565b5f5f5f5f5f60a08688031215610ca357610ca2610780565b5b5f610cb088828901610c38565b9550506020610cc188828901610c62565b9450506040610cd288828901610c76565b9350506060610ce388828901610c76565b9250506080610cf488828901610c38565b9150509295509295909350565b5f610d0b82610831565b9150610d1683610831565b9250828202610d2481610831565b91508282048414831517610d3b57610d3a610add565b5b5092915050565b7f4e487b71000000000000000000000000000000000000000000000000000000005f52601260045260245ffd5b5f610d7982610831565b9150610d8483610831565b925082610d9457610d93610d42565b5b82820490509291505056fea264697066735822122049c62f1cbe3c98df58d52eb7d4ffe304ec0be73fc10763581f2e392aaf9ed9cd64736f6c634300081e0033",
					"opcodes": "PUSH1 0x80 PUSH1 0x40 MSTORE CALLVALUE DUP1 ISZERO PUSH2 0xF JUMPI PUSH0 PUSH0 REVERT JUMPDEST POP PUSH1 0x40 MLOAD PUSH2 0xF1D CODESIZE SUB DUP1 PUSH2 0xF1D DUP4 CODECOPY DUP2 DUP2 ADD PUSH1 0x40 MSTORE DUP2 ADD SWAP1 PUSH2 0x31 SWAP2 SWAP1 PUSH2 0x110 JUMP JUMPDEST PUSH20 0x1B44F3514812D835EB1BDB0ACB33D3FA3351EE43 PUSH1 0x3 PUSH0 PUSH2 0x100 EXP DUP2 SLOAD DUP2 PUSH20 0xFFFFFFFFFFFFFFFFFFFFFFFFFFFFFFFFFFFFFFFF MUL NOT AND SWAP1 DUP4 PUSH20 0xFFFFFFFFFFFFFFFFFFFFFFFFFFFFFFFFFFFFFFFF AND MUL OR SWAP1 SSTORE POP CALLER PUSH1 0x5 PUSH0 PUSH2 0x100 EXP DUP2 SLOAD DUP2 PUSH20 0xFFFFFFFFFFFFFFFFFFFFFFFFFFFFFFFFFFFFFFFF MUL NOT AND SWAP1 DUP4 PUSH20 0xFFFFFFFFFFFFFFFFFFFFFFFFFFFFFFFFFFFFFFFF AND MUL OR SWAP1 SSTORE POP TIMESTAMP PUSH1 0x1 DUP2 SWAP1 SSTORE POP DUP1 PUSH1 0x2 DUP2 SWAP1 SSTORE POP POP PUSH2 0x13B JUMP JUMPDEST PUSH0 PUSH0 REVERT JUMPDEST PUSH0 DUP2 SWAP1 POP SWAP2 SWAP1 POP JUMP JUMPDEST PUSH2 0xEF DUP2 PUSH2 0xDD JUMP JUMPDEST DUP2 EQ PUSH2 0xF9 JUMPI PUSH0 PUSH0 REVERT JUMPDEST POP JUMP JUMPDEST PUSH0 DUP2 MLOAD SWAP1 POP PUSH2 0x10A DUP2 PUSH2 0xE6 JUMP JUMPDEST SWAP3 SWAP2 POP POP JUMP JUMPDEST PUSH0 PUSH1 0x20 DUP3 DUP5 SUB SLT ISZERO PUSH2 0x125 JUMPI PUSH2 0x124 PUSH2 0xD9 JUMP JUMPDEST JUMPDEST PUSH0 PUSH2 0x132 DUP5 DUP3 DUP6 ADD PUSH2 0xFC JUMP JUMPDEST SWAP2 POP POP SWAP3 SWAP2 POP POP JUMP JUMPDEST PUSH2 0xDD5 DUP1 PUSH2 0x148 PUSH0 CODECOPY PUSH0 RETURN INVALID PUSH1 0x80 PUSH1 0x40 MSTORE PUSH1 0x4 CALLDATASIZE LT PUSH2 0x85 JUMPI PUSH0 CALLDATALOAD PUSH1 0xE0 SHR DUP1 PUSH4 0xB60D4288 GT PUSH2 0x58 JUMPI DUP1 PUSH4 0xB60D4288 EQ PUSH2 0x12D JUMPI DUP1 PUSH4 0xBEA4DFB5 EQ PUSH2 0x137 JUMPI DUP1 PUSH4 0xC092158D EQ PUSH2 0x161 JUMPI DUP1 PUSH4 0xDA4658E0 EQ PUSH2 0x189 JUMPI DUP1 PUSH4 0xF2FDE38B EQ PUSH2 0x1B3 JUMPI PUSH2 0x85 JUMP JUMPDEST DUP1 PUSH4 0x13FFFF01 EQ PUSH2 0x89 JUMPI DUP1 PUSH4 0x8DA5CB5B EQ PUSH2 0xB1 JUMPI DUP1 PUSH4 0x8EDD6EB6 EQ PUSH2 0xDB JUMPI DUP1 PUSH4 0x9F883A05 EQ PUSH2 0xF1 JUMPI JUMPDEST PUSH0 PUSH0 REVERT JUMPDEST CALLVALUE DUP1 ISZERO PUSH2 0x94 JUMPI PUSH0 PUSH0 REVERT JUMPDEST POP PUSH2 0xAF PUSH1 0x4 DUP1 CALLDATASIZE SUB DUP2 ADD SWAP1 PUSH2 0xAA SWAP2 SWAP1 PUSH2 0x7DE JUMP JUMPDEST PUSH2 0x1DB JUMP JUMPDEST STOP JUMPDEST CALLVALUE DUP1 ISZERO PUSH2 0xBC JUMPI PUSH0 PUSH0 REVERT JUMPDEST POP PUSH2 0xC5 PUSH2 0x2AD JUMP JUMPDEST PUSH1 0x40 MLOAD PUSH2 0xD2 SWAP2 SWAP1 PUSH2 0x818 JUMP JUMPDEST PUSH1 0x40 MLOAD DUP1 SWAP2 SUB SWAP1 RETURN JUMPDEST CALLVALUE DUP1 ISZERO PUSH2 0xE6 JUMPI PUSH0 PUSH0 REVERT JUMPDEST POP PUSH2 0xEF PUSH2 0x2D2 JUMP JUMPDEST STOP JUMPDEST CALLVALUE DUP1 ISZERO PUSH2 0xFC JUMPI PUSH0 PUSH0 REVERT JUMPDEST POP PUSH2 0x117 PUSH1 0x4 DUP1 CALLDATASIZE SUB DUP2 ADD SWAP1 PUSH2 0x112 SWAP2 SWAP1 PUSH2 0x7DE JUMP JUMPDEST PUSH2 0x462 JUMP JUMPDEST PUSH1 0x40 MLOAD PUSH2 0x124 SWAP2 SWAP1 PUSH2 0x849 JUMP JUMPDEST PUSH1 0x40 MLOAD DUP1 SWAP2 SUB SWAP1 RETURN JUMPDEST PUSH2 0x135 PUSH2 0x476 JUMP JUMPDEST STOP JUMPDEST CALLVALUE DUP1 ISZERO PUSH2 0x142 JUMPI PUSH0 PUSH0 REVERT JUMPDEST POP PUSH2 0x14B PUSH2 0x58A JUMP JUMPDEST PUSH1 0x40 MLOAD PUSH2 0x158 SWAP2 SWAP1 PUSH2 0x87A JUMP JUMPDEST PUSH1 0x40 MLOAD DUP1 SWAP2 SUB SWAP1 RETURN JUMPDEST CALLVALUE DUP1 ISZERO PUSH2 0x16C JUMPI PUSH0 PUSH0 REVERT JUMPDEST POP PUSH2 0x187 PUSH1 0x4 DUP1 CALLDATASIZE SUB DUP2 ADD SWAP1 PUSH2 0x182 SWAP2 SWAP1 PUSH2 0x8BD JUMP JUMPDEST PUSH2 0x627 JUMP JUMPDEST STOP JUMPDEST CALLVALUE DUP1 ISZERO PUSH2 0x194 JUMPI PUSH0 PUSH0 REVERT JUMPDEST POP PUSH2 0x19D PUSH2 0x66C JUMP JUMPDEST PUSH1 0x40 MLOAD PUSH2 0x1AA SWAP2 SWAP1 PUSH2 0x915 JUMP JUMPDEST PUSH1 0x40 MLOAD DUP1 SWAP2 SUB SWAP1 RETURN JUMPDEST CALLVALUE DUP1 ISZERO PUSH2 0x1BE JUMPI PUSH0 PUSH0 REVERT JUMPDEST POP PUSH2 0x1D9 PUSH1 0x4 DUP1 CALLDATASIZE SUB DUP2 ADD SWAP1 PUSH2 0x1D4 SWAP2 SWAP1 PUSH2 0x7DE JUMP JUMPDEST PUSH2 0x67F JUMP JUMPDEST STOP JUMPDEST PUSH1 0x5 PUSH0 SWAP1 SLOAD SWAP1 PUSH2 0x100 EXP SWAP1 DIV PUSH20 0xFFFFFFFFFFFFFFFFFFFFFFFFFFFFFFFFFFFFFFFF AND PUSH20 0xFFFFFFFFFFFFFFFFFFFFFFFFFFFFFFFFFFFFFFFF AND CALLER PUSH20 0xFFFFFFFFFFFFFFFFFFFFFFFFFFFFFFFFFFFFFFFF AND EQ PUSH2 0x26A JUMPI PUSH1 0x40 MLOAD PUSH32 0x8C379A000000000000000000000000000000000000000000000000000000000 DUP2 MSTORE PUSH1 0x4 ADD PUSH2 0x261 SWAP1 PUSH2 0x9AE JUMP JUMPDEST PUSH1 0x40 MLOAD DUP1 SWAP2 SUB SWAP1 REVERT JUMPDEST DUP1 PUSH1 0x4 PUSH0 PUSH2 0x100 EXP DUP2 SLOAD DUP2 PUSH20 0xFFFFFFFFFFFFFFFFFFFFFFFFFFFFFFFFFFFFFFFF MUL NOT AND SWAP1 DUP4 PUSH20 0xFFFFFFFFFFFFFFFFFFFFFFFFFFFFFFFFFFFFFFFF AND MUL OR SWAP1 SSTORE POP POP JUMP JUMPDEST PUSH1 0x5 PUSH0 SWAP1 SLOAD SWAP1 PUSH2 0x100 EXP SWAP1 DIV PUSH20 0xFFFFFFFFFFFFFFFFFFFFFFFFFFFFFFFFFFFFFFFF AND DUP2 JUMP JUMPDEST PUSH9 0x56BC75E2D63100000 PUSH2 0x2E5 SELFBALANCE PUSH2 0x751 JUMP JUMPDEST LT ISZERO PUSH2 0x326 JUMPI PUSH1 0x40 MLOAD PUSH32 0x8C379A000000000000000000000000000000000000000000000000000000000 DUP2 MSTORE PUSH1 0x4 ADD PUSH2 0x31D SWAP1 PUSH2 0xA16 JUMP JUMPDEST PUSH1 0x40 MLOAD DUP1 SWAP2 SUB SWAP1 REVERT JUMPDEST PUSH1 0x5 PUSH0 SWAP1 SLOAD SWAP1 PUSH2 0x100 EXP SWAP1 DIV PUSH20 0xFFFFFFFFFFFFFFFFFFFFFFFFFFFFFFFFFFFFFFFF AND PUSH20 0xFFFFFFFFFFFFFFFFFFFFFFFFFFFFFFFFFFFFFFFF AND CALLER PUSH20 0xFFFFFFFFFFFFFFFFFFFFFFFFFFFFFFFFFFFFFFFF AND EQ PUSH2 0x3B5 JUMPI PUSH1 0x40 MLOAD PUSH32 0x8C379A000000000000000000000000000000000000000000000000000000000 DUP2 MSTORE PUSH1 0x4 ADD PUSH2 0x3AC SWAP1 PUSH2 0x9AE JUMP JUMPDEST PUSH1 0x40 MLOAD DUP1 SWAP2 SUB SWAP1 REVERT JUMPDEST PUSH0 CALLER PUSH20 0xFFFFFFFFFFFFFFFFFFFFFFFFFFFFFFFFFFFFFFFF AND SELFBALANCE PUSH1 0x40 MLOAD PUSH2 0x3DA SWAP1 PUSH2 0xA61 JUMP JUMPDEST PUSH0 PUSH1 0x40 MLOAD DUP1 DUP4 SUB DUP2 DUP6 DUP8 GAS CALL SWAP3 POP POP POP RETURNDATASIZE DUP1 PUSH0 DUP2 EQ PUSH2 0x414 JUMPI PUSH1 0x40 MLOAD SWAP2 POP PUSH1 0x1F NOT PUSH1 0x3F RETURNDATASIZE ADD AND DUP3 ADD PUSH1 0x40 MSTORE RETURNDATASIZE DUP3 MSTORE RETURNDATASIZE PUSH0 PUSH1 0x20 DUP5 ADD RETURNDATACOPY PUSH2 0x419 JUMP JUMPDEST PUSH1 0x60 SWAP2 POP JUMPDEST POP POP DUP1 SWAP2 POP POP DUP1 PUSH2 0x45F JUMPI PUSH1 0x40 MLOAD PUSH32 0x8C379A000000000000000000000000000000000000000000000000000000000 DUP2 MSTORE PUSH1 0x4 ADD PUSH2 0x456 SWAP1 PUSH2 0xABF JUMP JUMPDEST PUSH1 0x40 MLOAD DUP1 SWAP2 SUB SWAP1 REVERT JUMPDEST POP JUMP JUMPDEST PUSH0 PUSH1 0x20 MSTORE DUP1 PUSH0 MSTORE PUSH1 0x40 PUSH0 KECCAK256 PUSH0 SWAP2 POP SWAP1 POP SLOAD DUP2 JUMP JUMPDEST TIMESTAMP PUSH1 0x2 SLOAD PUSH1 0x1 SLOAD PUSH2 0x487 SWAP2 SWAP1 PUSH2 0xB0A JUMP JUMPDEST GT PUSH2 0x4C7 JUMPI PUSH1 0x40 MLOAD PUSH32 0x8C379A000000000000000000000000000000000000000000000000000000000 DUP2 MSTORE PUSH1 0x4 ADD PUSH2 0x4BE SWAP1 PUSH2 0xB87 JUMP JUMPDEST PUSH1 0x40 MLOAD DUP1 SWAP2 SUB SWAP1 REVERT JUMPDEST PUSH9 0x56BC75E2D63100000 PUSH2 0x4DA CALLVALUE PUSH2 0x751 JUMP JUMPDEST LT ISZERO PUSH2 0x51B JUMPI PUSH1 0x40 MLOAD PUSH32 0x8C379A000000000000000000000000000000000000000000000000000000000 DUP2 MSTORE PUSH1 0x4 ADD PUSH2 0x512 SWAP1 PUSH2 0xBEF JUMP JUMPDEST PUSH1 0x40 MLOAD DUP1 SWAP2 SUB SWAP1 REVERT JUMPDEST CALLVALUE PUSH0 PUSH0 CALLER PUSH20 0xFFFFFFFFFFFFFFFFFFFFFFFFFFFFFFFFFFFFFFFF AND PUSH20 0xFFFFFFFFFFFFFFFFFFFFFFFFFFFFFFFFFFFFFFFF AND DUP2 MSTORE PUSH1 0x20 ADD SWAP1 DUP2 MSTORE PUSH1 0x20 ADD PUSH0 KECCAK256 PUSH0 DUP3 DUP3 SLOAD PUSH2 0x566 SWAP2 SWAP1 PUSH2 0xB0A JUMP JUMPDEST SWAP3 POP POP DUP2 SWAP1 SSTORE POP PUSH1 0x1 PUSH1 0x5 PUSH1 0x14 PUSH2 0x100 EXP DUP2 SLOAD DUP2 PUSH1 0xFF MUL NOT AND SWAP1 DUP4 ISZERO ISZERO MUL OR SWAP1 SSTORE POP JUMP JUMPDEST PUSH0 PUSH0 PUSH1 0x3 PUSH0 SWAP1 SLOAD SWAP1 PUSH2 0x100 EXP SWAP1 DIV PUSH20 0xFFFFFFFFFFFFFFFFFFFFFFFFFFFFFFFFFFFFFFFF AND PUSH20 0xFFFFFFFFFFFFFFFFFFFFFFFFFFFFFFFFFFFFFFFF AND PUSH4 0xFEAF968C PUSH1 0x40 MLOAD DUP2 PUSH4 0xFFFFFFFF AND PUSH1 0xE0 SHL DUP2 MSTORE PUSH1 0x4 ADD PUSH1 0xA0 PUSH1 0x40 MLOAD DUP1 DUP4 SUB DUP2 DUP7 GAS STATICCALL ISZERO DUP1 ISZERO PUSH2 0x5F6 JUMPI RETURNDATASIZE PUSH0 PUSH0 RETURNDATACOPY RETURNDATASIZE PUSH0 REVERT JUMPDEST POP POP POP POP PUSH1 0x40 MLOAD RETURNDATASIZE PUSH1 0x1F NOT PUSH1 0x1F DUP3 ADD AND DUP3 ADD DUP1 PUSH1 0x40 MSTORE POP DUP2 ADD SWAP1 PUSH2 0x61A SWAP2 SWAP1 PUSH2 0xC8A JUMP JUMPDEST POP POP POP SWAP2 POP POP DUP1 SWAP2 POP POP SWAP1 JUMP JUMPDEST DUP1 PUSH0 PUSH0 DUP5 PUSH20 0xFFFFFFFFFFFFFFFFFFFFFFFFFFFFFFFFFFFFFFFF AND PUSH20 0xFFFFFFFFFFFFFFFFFFFFFFFFFFFFFFFFFFFFFFFF AND DUP2 MSTORE PUSH1 0x20 ADD SWAP1 DUP2 MSTORE PUSH1 0x20 ADD PUSH0 KECCAK256 DUP2 SWAP1 SSTORE POP POP POP JUMP JUMPDEST PUSH1 0x5 PUSH1 0x14 SWAP1 SLOAD SWAP1 PUSH2 0x100 EXP SWAP1 DIV PUSH1 0xFF AND DUP2 JUMP JUMPDEST PUSH1 0x5 PUSH0 SWAP1 SLOAD SWAP1 PUSH2 0x100 EXP SWAP1 DIV PUSH20 0xFFFFFFFFFFFFFFFFFFFFFFFFFFFFFFFFFFFFFFFF AND PUSH20 0xFFFFFFFFFFFFFFFFFFFFFFFFFFFFFFFFFFFFFFFF AND CALLER PUSH20 0xFFFFFFFFFFFFFFFFFFFFFFFFFFFFFFFFFFFFFFFF AND EQ PUSH2 0x70E JUMPI PUSH1 0x40 MLOAD PUSH32 0x8C379A000000000000000000000000000000000000000000000000000000000 DUP2 MSTORE PUSH1 0x4 ADD PUSH2 0x705 SWAP1 PUSH2 0x9AE JUMP JUMPDEST PUSH1 0x40 MLOAD DUP1 SWAP2 SUB SWAP1 REVERT JUMPDEST DUP1 PUSH1 0x5 PUSH0 PUSH2 0x100 EXP DUP2 SLOAD DUP2 PUSH20 0xFFFFFFFFFFFFFFFFFFFFFFFFFFFFFFFFFFFFFFFF MUL NOT AND SWAP1 DUP4 PUSH20 0xFFFFFFFFFFFFFFFFFFFFFFFFFFFFFFFFFFFFFFFF AND MUL OR SWAP1 SSTORE POP POP JUMP JUMPDEST PUSH0 PUSH0 PUSH2 0x75B PUSH2 0x58A JUMP JUMPDEST SWAP1 POP PUSH4 0x5F5E100 DUP2 DUP5 PUSH2 0x76E SWAP2 SWAP1 PUSH2 0xD01 JUMP JUMPDEST PUSH2 0x778 SWAP2 SWAP1 PUSH2 0xD6F JUMP JUMPDEST SWAP2 POP POP SWAP2 SWAP1 POP JUMP JUMPDEST PUSH0 PUSH0 REVERT JUMPDEST PUSH0 PUSH20 0xFFFFFFFFFFFFFFFFFFFFFFFFFFFFFFFFFFFFFFFF DUP3 AND SWAP1 POP SWAP2 SWAP1 POP JUMP JUMPDEST PUSH0 PUSH2 0x7AD DUP3 PUSH2 0x784 JUMP JUMPDEST SWAP1 POP SWAP2 SWAP1 POP JUMP JUMPDEST PUSH2 0x7BD DUP2 PUSH2 0x7A3 JUMP JUMPDEST DUP2 EQ PUSH2 0x7C7 JUMPI PUSH0 PUSH0 REVERT JUMPDEST POP JUMP JUMPDEST PUSH0 DUP2 CALLDATALOAD SWAP1 POP PUSH2 0x7D8 DUP2 PUSH2 0x7B4 JUMP JUMPDEST SWAP3 SWAP2 POP POP JUMP JUMPDEST PUSH0 PUSH1 0x20 DUP3 DUP5 SUB SLT ISZERO PUSH2 0x7F3 JUMPI PUSH2 0x7F2 PUSH2 0x780 JUMP JUMPDEST JUMPDEST PUSH0 PUSH2 0x800 DUP5 DUP3 DUP6 ADD PUSH2 0x7CA JUMP JUMPDEST SWAP2 POP POP SWAP3 SWAP2 POP POP JUMP JUMPDEST PUSH2 0x812 DUP2 PUSH2 0x7A3 JUMP JUMPDEST DUP3 MSTORE POP POP JUMP JUMPDEST PUSH0 PUSH1 0x20 DUP3 ADD SWAP1 POP PUSH2 0x82B PUSH0 DUP4 ADD DUP5 PUSH2 0x809 JUMP JUMPDEST SWAP3 SWAP2 POP POP JUMP JUMPDEST PUSH0 DUP2 SWAP1 POP SWAP2 SWAP1 POP JUMP JUMPDEST PUSH2 0x843 DUP2 PUSH2 0x831 JUMP JUMPDEST DUP3 MSTORE POP POP JUMP JUMPDEST PUSH0 PUSH1 0x20 DUP3 ADD SWAP1 POP PUSH2 0x85C PUSH0 DUP4 ADD DUP5 PUSH2 0x83A JUMP JUMPDEST SWAP3 SWAP2 POP POP JUMP JUMPDEST PUSH0 DUP2 SWAP1 POP SWAP2 SWAP1 POP JUMP JUMPDEST PUSH2 0x874 DUP2 PUSH2 0x862 JUMP JUMPDEST DUP3 MSTORE POP POP JUMP JUMPDEST PUSH0 PUSH1 0x20 DUP3 ADD SWAP1 POP PUSH2 0x88D PUSH0 DUP4 ADD DUP5 PUSH2 0x86B JUMP JUMPDEST SWAP3 SWAP2 POP POP JUMP JUMPDEST PUSH2 0x89C DUP2 PUSH2 0x831 JUMP JUMPDEST DUP2 EQ PUSH2 0x8A6 JUMPI PUSH0 PUSH0 REVERT JUMPDEST POP JUMP JUMPDEST PUSH0 DUP2 CALLDATALOAD SWAP1 POP PUSH2 0x8B7 DUP2 PUSH2 0x893 JUMP JUMPDEST SWAP3 SWAP2 POP POP JUMP JUMPDEST PUSH0 PUSH0 PUSH1 0x40 DUP4 DUP6 SUB SLT ISZERO PUSH2 0x8D3 JUMPI PUSH2 0x8D2 PUSH2 0x780 JUMP JUMPDEST JUMPDEST PUSH0 PUSH2 0x8E0 DUP6 DUP3 DUP7 ADD PUSH2 0x7CA JUMP JUMPDEST SWAP3 POP POP PUSH1 0x20 PUSH2 0x8F1 DUP6 DUP3 DUP7 ADD PUSH2 0x8A9 JUMP JUMPDEST SWAP2 POP POP SWAP3 POP SWAP3 SWAP1 POP JUMP JUMPDEST PUSH0 DUP2 ISZERO ISZERO SWAP1 POP SWAP2 SWAP1 POP JUMP JUMPDEST PUSH2 0x90F DUP2 PUSH2 0x8FB JUMP JUMPDEST DUP3 MSTORE POP POP JUMP JUMPDEST PUSH0 PUSH1 0x20 DUP3 ADD SWAP1 POP PUSH2 0x928 PUSH0 DUP4 ADD DUP5 PUSH2 0x906 JUMP JUMPDEST SWAP3 SWAP2 POP POP JUMP JUMPDEST PUSH0 DUP3 DUP3 MSTORE PUSH1 0x20 DUP3 ADD SWAP1 POP SWAP3 SWAP2 POP POP JUMP JUMPDEST PUSH32 0x746869732066756E6374696F6E206F6E6C792063616C6C206279206F776E6572 PUSH0 DUP3 ADD MSTORE PUSH32 0x2121000000000000000000000000000000000000000000000000000000000000 PUSH1 0x20 DUP3 ADD MSTORE POP JUMP JUMPDEST PUSH0 PUSH2 0x998 PUSH1 0x22 DUP4 PUSH2 0x92E JUMP JUMPDEST SWAP2 POP PUSH2 0x9A3 DUP3 PUSH2 0x93E JUMP JUMPDEST PUSH1 0x40 DUP3 ADD SWAP1 POP SWAP2 SWAP1 POP JUMP JUMPDEST PUSH0 PUSH1 0x20 DUP3 ADD SWAP1 POP DUP2 DUP2 SUB PUSH0 DUP4 ADD MSTORE PUSH2 0x9C5 DUP2 PUSH2 0x98C JUMP JUMPDEST SWAP1 POP SWAP2 SWAP1 POP JUMP JUMPDEST PUSH32 0x546172676574206973206E6F7420726561636865640000000000000000000000 PUSH0 DUP3 ADD MSTORE POP JUMP JUMPDEST PUSH0 PUSH2 0xA00 PUSH1 0x15 DUP4 PUSH2 0x92E JUMP JUMPDEST SWAP2 POP PUSH2 0xA0B DUP3 PUSH2 0x9CC JUMP JUMPDEST PUSH1 0x20 DUP3 ADD SWAP1 POP SWAP2 SWAP1 POP JUMP JUMPDEST PUSH0 PUSH1 0x20 DUP3 ADD SWAP1 POP DUP2 DUP2 SUB PUSH0 DUP4 ADD MSTORE PUSH2 0xA2D DUP2 PUSH2 0x9F4 JUMP JUMPDEST SWAP1 POP SWAP2 SWAP1 POP JUMP JUMPDEST PUSH0 DUP2 SWAP1 POP SWAP3 SWAP2 POP POP JUMP JUMPDEST POP JUMP JUMPDEST PUSH0 PUSH2 0xA4C PUSH0 DUP4 PUSH2 0xA34 JUMP JUMPDEST SWAP2 POP PUSH2 0xA57 DUP3 PUSH2 0xA3E JUMP JUMPDEST PUSH0 DUP3 ADD SWAP1 POP SWAP2 SWAP1 POP JUMP JUMPDEST PUSH0 PUSH2 0xA6B DUP3 PUSH2 0xA41 JUMP JUMPDEST SWAP2 POP DUP2 SWAP1 POP SWAP2 SWAP1 POP JUMP JUMPDEST PUSH32 0x7478206661696C65640000000000000000000000000000000000000000000000 PUSH0 DUP3 ADD MSTORE POP JUMP JUMPDEST PUSH0 PUSH2 0xAA9 PUSH1 0x9 DUP4 PUSH2 0x92E JUMP JUMPDEST SWAP2 POP PUSH2 0xAB4 DUP3 PUSH2 0xA75 JUMP JUMPDEST PUSH1 0x20 DUP3 ADD SWAP1 POP SWAP2 SWAP1 POP JUMP JUMPDEST PUSH0 PUSH1 0x20 DUP3 ADD SWAP1 POP DUP2 DUP2 SUB PUSH0 DUP4 ADD MSTORE PUSH2 0xAD6 DUP2 PUSH2 0xA9D JUMP JUMPDEST SWAP1 POP SWAP2 SWAP1 POP JUMP JUMPDEST PUSH32 0x4E487B7100000000000000000000000000000000000000000000000000000000 PUSH0 MSTORE PUSH1 0x11 PUSH1 0x4 MSTORE PUSH1 0x24 PUSH0 REVERT JUMPDEST PUSH0 PUSH2 0xB14 DUP3 PUSH2 0x831 JUMP JUMPDEST SWAP2 POP PUSH2 0xB1F DUP4 PUSH2 0x831 JUMP JUMPDEST SWAP3 POP DUP3 DUP3 ADD SWAP1 POP DUP1 DUP3 GT ISZERO PUSH2 0xB37 JUMPI PUSH2 0xB36 PUSH2 0xADD JUMP JUMPDEST JUMPDEST SWAP3 SWAP2 POP POP JUMP JUMPDEST PUSH32 0x77696E646F7720697320636C6F73656420000000000000000000000000000000 PUSH0 DUP3 ADD MSTORE POP JUMP JUMPDEST PUSH0 PUSH2 0xB71 PUSH1 0x11 DUP4 PUSH2 0x92E JUMP JUMPDEST SWAP2 POP PUSH2 0xB7C DUP3 PUSH2 0xB3D JUMP JUMPDEST PUSH1 0x20 DUP3 ADD SWAP1 POP SWAP2 SWAP1 POP JUMP JUMPDEST PUSH0 PUSH1 0x20 DUP3 ADD SWAP1 POP DUP2 DUP2 SUB PUSH0 DUP4 ADD MSTORE PUSH2 0xB9E DUP2 PUSH2 0xB65 JUMP JUMPDEST SWAP1 POP SWAP2 SWAP1 POP JUMP JUMPDEST PUSH32 0x706C656173652073656E64206D6F726520657468000000000000000000000000 PUSH0 DUP3 ADD MSTORE POP JUMP JUMPDEST PUSH0 PUSH2 0xBD9 PUSH1 0x14 DUP4 PUSH2 0x92E JUMP JUMPDEST SWAP2 POP PUSH2 0xBE4 DUP3 PUSH2 0xBA5 JUMP JUMPDEST PUSH1 0x20 DUP3 ADD SWAP1 POP SWAP2 SWAP1 POP JUMP JUMPDEST PUSH0 PUSH1 0x20 DUP3 ADD SWAP1 POP DUP2 DUP2 SUB PUSH0 DUP4 ADD MSTORE PUSH2 0xC06 DUP2 PUSH2 0xBCD JUMP JUMPDEST SWAP1 POP SWAP2 SWAP1 POP JUMP JUMPDEST PUSH0 PUSH10 0xFFFFFFFFFFFFFFFFFFFF DUP3 AND SWAP1 POP SWAP2 SWAP1 POP JUMP JUMPDEST PUSH2 0xC2B DUP2 PUSH2 0xC0D JUMP JUMPDEST DUP2 EQ PUSH2 0xC35 JUMPI PUSH0 PUSH0 REVERT JUMPDEST POP JUMP JUMPDEST PUSH0 DUP2 MLOAD SWAP1 POP PUSH2 0xC46 DUP2 PUSH2 0xC22 JUMP JUMPDEST SWAP3 SWAP2 POP POP JUMP JUMPDEST PUSH2 0xC55 DUP2 PUSH2 0x862 JUMP JUMPDEST DUP2 EQ PUSH2 0xC5F JUMPI PUSH0 PUSH0 REVERT JUMPDEST POP JUMP JUMPDEST PUSH0 DUP2 MLOAD SWAP1 POP PUSH2 0xC70 DUP2 PUSH2 0xC4C JUMP JUMPDEST SWAP3 SWAP2 POP POP JUMP JUMPDEST PUSH0 DUP2 MLOAD SWAP1 POP PUSH2 0xC84 DUP2 PUSH2 0x893 JUMP JUMPDEST SWAP3 SWAP2 POP POP JUMP JUMPDEST PUSH0 PUSH0 PUSH0 PUSH0 PUSH0 PUSH1 0xA0 DUP7 DUP9 SUB SLT ISZERO PUSH2 0xCA3 JUMPI PUSH2 0xCA2 PUSH2 0x780 JUMP JUMPDEST JUMPDEST PUSH0 PUSH2 0xCB0 DUP9 DUP3 DUP10 ADD PUSH2 0xC38 JUMP JUMPDEST SWAP6 POP POP PUSH1 0x20 PUSH2 0xCC1 DUP9 DUP3 DUP10 ADD PUSH2 0xC62 JUMP JUMPDEST SWAP5 POP POP PUSH1 0x40 PUSH2 0xCD2 DUP9 DUP3 DUP10 ADD PUSH2 0xC76 JUMP JUMPDEST SWAP4 POP POP PUSH1 0x60 PUSH2 0xCE3 DUP9 DUP3 DUP10 ADD PUSH2 0xC76 JUMP JUMPDEST SWAP3 POP POP PUSH1 0x80 PUSH2 0xCF4 DUP9 DUP3 DUP10 ADD PUSH2 0xC38 JUMP JUMPDEST SWAP2 POP POP SWAP3 SWAP6 POP SWAP3 SWAP6 SWAP1 SWAP4 POP JUMP JUMPDEST PUSH0 PUSH2 0xD0B DUP3 PUSH2 0x831 JUMP JUMPDEST SWAP2 POP PUSH2 0xD16 DUP4 PUSH2 0x831 JUMP JUMPDEST SWAP3 POP DUP3 DUP3 MUL PUSH2 0xD24 DUP2 PUSH2 0x831 JUMP JUMPDEST SWAP2 POP DUP3 DUP3 DIV DUP5 EQ DUP4 ISZERO OR PUSH2 0xD3B JUMPI PUSH2 0xD3A PUSH2 0xADD JUMP JUMPDEST JUMPDEST POP SWAP3 SWAP2 POP POP JUMP JUMPDEST PUSH32 0x4E487B7100000000000000000000000000000000000000000000000000000000 PUSH0 MSTORE PUSH1 0x12 PUSH1 0x4 MSTORE PUSH1 0x24 PUSH0 REVERT JUMPDEST PUSH0 PUSH2 0xD79 DUP3 PUSH2 0x831 JUMP JUMPDEST SWAP2 POP PUSH2 0xD84 DUP4 PUSH2 0x831 JUMP JUMPDEST SWAP3 POP DUP3 PUSH2 0xD94 JUMPI PUSH2 0xD93 PUSH2 0xD42 JUMP JUMPDEST JUMPDEST DUP3 DUP3 DIV SWAP1 POP SWAP3 SWAP2 POP POP JUMP INVALID LOG2 PUSH5 0x6970667358 0x22 SLT KECCAK256 BLOBHASH 0xC6 0x2F SHR 0xBE EXTCODECOPY SWAP9 0xDF PC 0xD5 0x2E 0xB7 0xD4 SELFDESTRUCT CALLF 0x4EC SIGNEXTEND SWAPN 0x3F 0xC1 SMOD PUSH4 0x581F2E39 0x2A 0xAF SWAP15 0xD9 0xCD PUSH5 0x736F6C6343 STOP ADDMOD 0x1E STOP CALLER "
				},
				"gasEstimates": {
					"creation": {
						"codeDepositCost": "708200",
						"executionCost": "infinite",
						"totalCost": "infinite"
					},
					"external": {
						"fund()": "infinite",
						"fundersToAmount(address)": "2868",
						"getChainlinkDataFeedLatestAnswer()": "infinite",
						"getFund()": "infinite",
						"getFundSuccess()": "2583",
						"owner()": "2531",
						"setErc20Addr(address)": "26885",
						"setFundertoAmount(address,uint256)": "22864",
						"transferOwnership(address)": "26972"
					},
					"internal": {
						"convertETHTUSD(uint256)": "infinite"
					}
				},
				"methodIdentifiers": {
					"fund()": "b60d4288",
					"fundersToAmount(address)": "9f883a05",
					"getChainlinkDataFeedLatestAnswer()": "bea4dfb5",
					"getFund()": "8edd6eb6",
					"getFundSuccess()": "da4658e0",
					"owner()": "8da5cb5b",
					"setErc20Addr(address)": "13ffff01",
					"setFundertoAmount(address,uint256)": "c092158d",
					"transferOwnership(address)": "f2fde38b"
				}
			},
			"storageLayout": {
				"storage": [
					{
						"astId": 60,
						"contract": "fundme.sol:FundMe",
						"label": "fundersToAmount",
						"offset": 0,
						"slot": "0",
						"type": "t_mapping(t_address,t_uint256)"
					},
					{
						"astId": 69,
						"contract": "fundme.sol:FundMe",
						"label": "deploymentTimestamp",
						"offset": 0,
						"slot": "1",
						"type": "t_uint256"
					},
					{
						"astId": 71,
						"contract": "fundme.sol:FundMe",
						"label": "lockTime",
						"offset": 0,
						"slot": "2",
						"type": "t_uint256"
					},
					{
						"astId": 74,
						"contract": "fundme.sol:FundMe",
						"label": "dataFeed",
						"offset": 0,
						"slot": "3",
						"type": "t_contract(AggregatorV3Interface)45"
					},
					{
						"astId": 76,
						"contract": "fundme.sol:FundMe",
						"label": "erc20Addr",
						"offset": 0,
						"slot": "4",
						"type": "t_address"
					},
					{
						"astId": 78,
						"contract": "fundme.sol:FundMe",
						"label": "owner",
						"offset": 0,
						"slot": "5",
						"type": "t_address"
					},
					{
						"astId": 80,
						"contract": "fundme.sol:FundMe",
						"label": "getFundSuccess",
						"offset": 20,
						"slot": "5",
						"type": "t_bool"
					}
				],
				"types": {
					"t_address": {
						"encoding": "inplace",
						"label": "address",
						"numberOfBytes": "20"
					},
					"t_bool": {
						"encoding": "inplace",
						"label": "bool",
						"numberOfBytes": "1"
					},
					"t_contract(AggregatorV3Interface)45": {
						"encoding": "inplace",
						"label": "contract AggregatorV3Interface",
						"numberOfBytes": "20"
					},
					"t_mapping(t_address,t_uint256)": {
						"encoding": "mapping",
						"key": "t_address",
						"label": "mapping(address => uint256)",
						"numberOfBytes": "32",
						"value": "t_uint256"
					},
					"t_uint256": {
						"encoding": "inplace",
						"label": "uint256",
						"numberOfBytes": "32"
					}
				}
			},
			"userdoc": {
				"kind": "user",
				"methods": {
					"getChainlinkDataFeedLatestAnswer()": {
						"notice": "Returns the latest answer."
					}
				},
				"version": 1
			}
		}
	}
}