{
	"test.sol": {
		"Child": {
			"abi": [
				{
					"inputs": [],
					"name": "a",
					"outputs": [
						{
							"internalType": "uint256",
							"name": "",
							"type": "uint256"
						}
					],
					"stateMutability": "view",
					"type": "function"
				},
				{
					"inputs": [],
					"name": "add",
					"outputs": [],
					"stateMutability": "nonpayable",
					"type": "function"
				},
				{
					"inputs": [],
					"name": "addOne",
					"outputs": [],
					"stateMutability": "nonpayable",
					"type": "function"
				},
				{
					"inputs": [],
					"name": "addTwo",
					"outputs": [],
					"stateMutability": "nonpayable",
					"type": "function"
				}
			],
			"devdoc": {
				"kind": "dev",
				"methods": {},
				"version": 1
			},
			"evm": {
				"assembly": "    /* \"test.sol\":218:344  contract Child is Parent {... */\n  mstore(0x40, 0x80)\n  callvalue\n  dup1\n  iszero\n  tag_1\n  jumpi\n  revert(0x00, 0x00)\ntag_1:\n  pop\n  dataSize(sub_0)\n  dup1\n  dataOffset(sub_0)\n  0x00\n  codecopy\n  0x00\n  return\nstop\n\nsub_0: assembly {\n        /* \"test.sol\":218:344  contract Child is Parent {... */\n      mstore(0x40, 0x80)\n      callvalue\n      dup1\n      iszero\n      tag_1\n      jumpi\n      revert(0x00, 0x00)\n    tag_1:\n      pop\n      jumpi(tag_2, lt(calldatasize, 0x04))\n      shr(0xe0, calldataload(0x00))\n      dup1\n      0x0dbe671f\n      eq\n      tag_3\n      jumpi\n      dup1\n      0x4d47524e\n      eq\n      tag_4\n      jumpi\n      dup1\n      0x4f2be91f\n      eq\n      tag_5\n      jumpi\n      dup1\n      0x6057d3ee\n      eq\n      tag_6\n      jumpi\n    tag_2:\n      revert(0x00, 0x00)\n        /* \"test.sol\":88:104  uint256 public a */\n    tag_3:\n      tag_7\n      tag_8\n      jump\t// in\n    tag_7:\n      mload(0x40)\n      tag_9\n      swap2\n      swap1\n      tag_10\n      jump\t// in\n    tag_9:\n      mload(0x40)\n      dup1\n      swap2\n      sub\n      swap1\n      return\n        /* \"test.sol\":249:297  function addTwo() public {... */\n    tag_4:\n      tag_11\n      tag_12\n      jump\t// in\n    tag_11:\n      stop\n        /* \"test.sol\":303:342  function add() public override {... */\n    tag_5:\n      tag_13\n      tag_14\n      jump\t// in\n    tag_13:\n      stop\n        /* \"test.sol\":133:178  function addOne() public {... */\n    tag_6:\n      tag_15\n      tag_16\n      jump\t// in\n    tag_15:\n      stop\n        /* \"test.sol\":88:104  uint256 public a */\n    tag_8:\n      sload(0x00)\n      dup2\n      jump\t// out\n        /* \"test.sol\":249:297  function addTwo() public {... */\n    tag_12:\n        /* \"test.sol\":289:290  2 */\n      0x02\n        /* \"test.sol\":284:285  a */\n      0x00\n      0x00\n        /* \"test.sol\":284:290  a += 2 */\n      dup3\n      dup3\n      sload\n      tag_18\n      swap2\n      swap1\n      tag_19\n      jump\t// in\n    tag_18:\n      swap3\n      pop\n      pop\n      dup2\n      swap1\n      sstore\n      pop\n        /* \"test.sol\":249:297  function addTwo() public {... */\n      jump\t// out\n        /* \"test.sol\":303:342  function add() public override {... */\n    tag_14:\n      jump\t// out\n        /* \"test.sol\":133:178  function addOne() public {... */\n    tag_16:\n        /* \"test.sol\":168:169  a */\n      0x00\n      0x00\n        /* \"test.sol\":168:171  a++ */\n      dup2\n      sload\n      dup1\n      swap3\n      swap2\n      swap1\n      tag_22\n      swap1\n      tag_23\n      jump\t// in\n    tag_22:\n      swap2\n      swap1\n      pop\n      sstore\n      pop\n        /* \"test.sol\":133:178  function addOne() public {... */\n      jump\t// out\n        /* \"#utility.yul\":7:84   */\n    tag_24:\n        /* \"#utility.yul\":44:51   */\n      0x00\n        /* \"#utility.yul\":73:78   */\n      dup2\n        /* \"#utility.yul\":62:78   */\n      swap1\n      pop\n        /* \"#utility.yul\":7:84   */\n      swap2\n      swap1\n      pop\n      jump\t// out\n        /* \"#utility.yul\":90:208   */\n    tag_25:\n        /* \"#utility.yul\":177:201   */\n      tag_30\n        /* \"#utility.yul\":195:200   */\n      dup2\n        /* \"#utility.yul\":177:201   */\n      tag_24\n      jump\t// in\n    tag_30:\n        /* \"#utility.yul\":172:175   */\n      dup3\n        /* \"#utility.yul\":165:202   */\n      mstore\n        /* \"#utility.yul\":90:208   */\n      pop\n      pop\n      jump\t// out\n        /* \"#utility.yul\":214:436   */\n    tag_10:\n        /* \"#utility.yul\":307:311   */\n      0x00\n        /* \"#utility.yul\":345:347   */\n      0x20\n        /* \"#utility.yul\":334:343   */\n      dup3\n        /* \"#utility.yul\":330:348   */\n      add\n        /* \"#utility.yul\":322:348   */\n      swap1\n      pop\n        /* \"#utility.yul\":358:429   */\n      tag_32\n        /* \"#utility.yul\":426:427   */\n      0x00\n        /* \"#utility.yul\":415:424   */\n      dup4\n        /* \"#utility.yul\":411:428   */\n      add\n        /* \"#utility.yul\":402:408   */\n      dup5\n        /* \"#utility.yul\":358:429   */\n      tag_25\n      jump\t// in\n    tag_32:\n        /* \"#utility.yul\":214:436   */\n      swap3\n      swap2\n      pop\n      pop\n      jump\t// out\n        /* \"#utility.yul\":442:622   */\n    tag_26:\n        /* \"#utility.yul\":490:567   */\n      0x4e487b7100000000000000000000000000000000000000000000000000000000\n        /* \"#utility.yul\":487:488   */\n      0x00\n        /* \"#utility.yul\":480:568   */\n      mstore\n        /* \"#utility.yul\":587:591   */\n      0x11\n        /* \"#utility.yul\":584:585   */\n      0x04\n        /* \"#utility.yul\":577:592   */\n      mstore\n        /* \"#utility.yul\":611:615   */\n      0x24\n        /* \"#utility.yul\":608:609   */\n      0x00\n        /* \"#utility.yul\":601:616   */\n      revert\n        /* \"#utility.yul\":628:819   */\n    tag_19:\n        /* \"#utility.yul\":668:671   */\n      0x00\n        /* \"#utility.yul\":687:707   */\n      tag_35\n        /* \"#utility.yul\":705:706   */\n      dup3\n        /* \"#utility.yul\":687:707   */\n      tag_24\n      jump\t// in\n    tag_35:\n        /* \"#utility.yul\":682:707   */\n      swap2\n      pop\n        /* \"#utility.yul\":721:741   */\n      tag_36\n        /* \"#utility.yul\":739:740   */\n      dup4\n        /* \"#utility.yul\":721:741   */\n      tag_24\n      jump\t// in\n    tag_36:\n        /* \"#utility.yul\":716:741   */\n      swap3\n      pop\n        /* \"#utility.yul\":764:765   */\n      dup3\n        /* \"#utility.yul\":761:762   */\n      dup3\n        /* \"#utility.yul\":757:766   */\n      add\n        /* \"#utility.yul\":750:766   */\n      swap1\n      pop\n        /* \"#utility.yul\":785:788   */\n      dup1\n        /* \"#utility.yul\":782:783   */\n      dup3\n        /* \"#utility.yul\":779:789   */\n      gt\n        /* \"#utility.yul\":776:812   */\n      iszero\n      tag_37\n      jumpi\n        /* \"#utility.yul\":792:810   */\n      tag_38\n      tag_26\n      jump\t// in\n    tag_38:\n        /* \"#utility.yul\":776:812   */\n    tag_37:\n        /* \"#utility.yul\":628:819   */\n      swap3\n      swap2\n      pop\n      pop\n      jump\t// out\n        /* \"#utility.yul\":825:1058   */\n    tag_23:\n        /* \"#utility.yul\":864:867   */\n      0x00\n        /* \"#utility.yul\":887:911   */\n      tag_40\n        /* \"#utility.yul\":905:910   */\n      dup3\n        /* \"#utility.yul\":887:911   */\n      tag_24\n      jump\t// in\n    tag_40:\n        /* \"#utility.yul\":878:911   */\n      swap2\n      pop\n        /* \"#utility.yul\":933:999   */\n      0xffffffffffffffffffffffffffffffffffffffffffffffffffffffffffffffff\n        /* \"#utility.yul\":926:931   */\n      dup3\n        /* \"#utility.yul\":923:1000   */\n      sub\n        /* \"#utility.yul\":920:1023   */\n      tag_41\n      jumpi\n        /* \"#utility.yul\":1003:1021   */\n      tag_42\n      tag_26\n      jump\t// in\n    tag_42:\n        /* \"#utility.yul\":920:1023   */\n    tag_41:\n        /* \"#utility.yul\":1050:1051   */\n      0x01\n        /* \"#utility.yul\":1043:1048   */\n      dup3\n        /* \"#utility.yul\":1039:1052   */\n      add\n        /* \"#utility.yul\":1032:1052   */\n      swap1\n      pop\n        /* \"#utility.yul\":825:1058   */\n      swap2\n      swap1\n      pop\n      jump\t// out\n\n    auxdata: 0xa264697066735822122005b258e390a84e2212fdc11dafa373231e504b93952d7d8aa604b75ed5f7498164736f6c634300081e0033\n}\n",
				"bytecode": {
					"linkReferences": {},
					"object": "6080604052348015600e575f5ffd5b506101d18061001c5f395ff3fe608060405234801561000f575f5ffd5b506004361061004a575f3560e01c80630dbe671f1461004e5780634d47524e1461006c5780634f2be91f146100765780636057d3ee14610080575b5f5ffd5b61005661008a565b60405161006391906100db565b60405180910390f35b61007461008f565b005b61007e6100a9565b005b6100886100ab565b005b5f5481565b60025f5f8282546100a09190610121565b92505081905550565b565b5f5f8154809291906100bc90610154565b9190505550565b5f819050919050565b6100d5816100c3565b82525050565b5f6020820190506100ee5f8301846100cc565b92915050565b7f4e487b71000000000000000000000000000000000000000000000000000000005f52601160045260245ffd5b5f61012b826100c3565b9150610136836100c3565b925082820190508082111561014e5761014d6100f4565b5b92915050565b5f61015e826100c3565b91507fffffffffffffffffffffffffffffffffffffffffffffffffffffffffffffffff82036101905761018f6100f4565b5b60018201905091905056fea264697066735822122005b258e390a84e2212fdc11dafa373231e504b93952d7d8aa604b75ed5f7498164736f6c634300081e0033",
					"opcodes": "PUSH1 0x80 PUSH1 0x40 MSTORE CALLVALUE DUP1 ISZERO PUSH1 0xE JUMPI PUSH0 PUSH0 REVERT JUMPDEST POP PUSH2 0x1D1 DUP1 PUSH2 0x1C PUSH0 CODECOPY PUSH0 RETURN INVALID PUSH1 0x80 PUSH1 0x40 MSTORE CALLVALUE DUP1 ISZERO PUSH2 0xF JUMPI PUSH0 PUSH0 REVERT JUMPDEST POP PUSH1 0x4 CALLDATASIZE LT PUSH2 0x4A JUMPI PUSH0 CALLDATALOAD PUSH1 0xE0 SHR DUP1 PUSH4 0xDBE671F EQ PUSH2 0x4E JUMPI DUP1 PUSH4 0x4D47524E EQ PUSH2 0x6C JUMPI DUP1 PUSH4 0x4F2BE91F EQ PUSH2 0x76 JUMPI DUP1 PUSH4 0x6057D3EE EQ PUSH2 0x80 JUMPI JUMPDEST PUSH0 PUSH0 REVERT JUMPDEST PUSH2 0x56 PUSH2 0x8A JUMP JUMPDEST PUSH1 0x40 MLOAD PUSH2 0x63 SWAP2 SWAP1 PUSH2 0xDB JUMP JUMPDEST PUSH1 0x40 MLOAD DUP1 SWAP2 SUB SWAP1 RETURN JUMPDEST PUSH2 0x74 PUSH2 0x8F JUMP JUMPDEST STOP JUMPDEST PUSH2 0x7E PUSH2 0xA9 JUMP JUMPDEST STOP JUMPDEST PUSH2 0x88 PUSH2 0xAB JUMP JUMPDEST STOP JUMPDEST PUSH0 SLOAD DUP2 JUMP JUMPDEST PUSH1 0x2 PUSH0 PUSH0 DUP3 DUP3 SLOAD PUSH2 0xA0 SWAP2 SWAP1 PUSH2 0x121 JUMP JUMPDEST SWAP3 POP POP DUP2 SWAP1 SSTORE POP JUMP JUMPDEST JUMP JUMPDEST PUSH0 PUSH0 DUP2 SLOAD DUP1 SWAP3 SWAP2 SWAP1 PUSH2 0xBC SWAP1 PUSH2 0x154 JUMP JUMPDEST SWAP2 SWAP1 POP SSTORE POP JUMP JUMPDEST PUSH0 DUP2 SWAP1 POP SWAP2 SWAP1 POP JUMP JUMPDEST PUSH2 0xD5 DUP2 PUSH2 0xC3 JUMP JUMPDEST DUP3 MSTORE POP POP JUMP JUMPDEST PUSH0 PUSH1 0x20 DUP3 ADD SWAP1 POP PUSH2 0xEE PUSH0 DUP4 ADD DUP5 PUSH2 0xCC JUMP JUMPDEST SWAP3 SWAP2 POP POP JUMP JUMPDEST PUSH32 0x4E487B7100000000000000000000000000000000000000000000000000000000 PUSH0 MSTORE PUSH1 0x11 PUSH1 0x4 MSTORE PUSH1 0x24 PUSH0 REVERT JUMPDEST PUSH0 PUSH2 0x12B DUP3 PUSH2 0xC3 JUMP JUMPDEST SWAP2 POP PUSH2 0x136 DUP4 PUSH2 0xC3 JUMP JUMPDEST SWAP3 POP DUP3 DUP3 ADD SWAP1 POP DUP1 DUP3 GT ISZERO PUSH2 0x14E JUMPI PUSH2 0x14D PUSH2 0xF4 JUMP JUMPDEST JUMPDEST SWAP3 SWAP2 POP POP JUMP JUMPDEST PUSH0 PUSH2 0x15E DUP3 PUSH2 0xC3 JUMP JUMPDEST SWAP2 POP PUSH32 0xFFFFFFFFFFFFFFFFFFFFFFFFFFFFFFFFFFFFFFFFFFFFFFFFFFFFFFFFFFFFFFFF DUP3 SUB PUSH2 0x190 JUMPI PUSH2 0x18F PUSH2 0xF4 JUMP JUMPDEST JUMPDEST PUSH1 0x1 DUP3 ADD SWAP1 POP SWAP2 SWAP1 POP JUMP INVALID LOG2 PUSH5 0x6970667358 0x22 SLT KECCAK256 SDIV 0xB2 PC CALLF 0x90A8 0x4E 0x22 SLT REVERT 0xC1 SAR 0xAF LOG3 PUSH20 0x231E504B93952D7D8AA604B75ED5F7498164736F PUSH13 0x634300081E0033000000000000 "
				},
				"gasEstimates": {
					"creation": {
						"codeDepositCost": "93000",
						"executionCost": "139",
						"totalCost": "93139"
					},
					"external": {
						"a()": "2402",
						"add()": "165",
						"addOne()": "24540",
						"addTwo()": "infinite"
					}
				},
				"methodIdentifiers": {
					"a()": "0dbe671f",
					"add()": "4f2be91f",
					"addOne()": "6057d3ee",
					"addTwo()": "4d47524e"
				}
			},
			"storageLayout": {
				"storage": [
					{
						"astId": 3,
						"contract": "test.sol:Child",
						"label": "a",
						"offset": 0,
						"slot": "0",
						"type": "t_uint256"
					},
					{
						"astId": 5,
						"contract": "test.sol:Child",
						"label": "b",
						"offset": 0,
						"slot": "1",
						"type": "t_uint256"
					}
				],
				"types": {
					"t_uint256": {
						"encoding": "inplace",
						"label": "uint256",
						"numberOfBytes": "32"
					}
				}
			},
			"userdoc": {
				"kind": "user",
				"methods": {},
				"version": 1
			}
		}
	}
}